:020000040800F2
:100000003804002045010008351300088105000868
:1000100031130008F9010008391900080000000038
:10002000000000000000000000000000271500088C
:10003000FD01000800000000371300083516000815
:100040005F0100085F0100085F0100085F01000810
:100050005F0100085F0100085F0100085F01000800
:100060005F0100085F0100085F0100085F010008F0
:100070005F0100085F0100085F0100085F010008E0
:100080005F0100085F0100085F0100085F010008D0
:100090005F0100085F0100085F0100085F010008C0
:1000A0005F0100085F0100085F0100085F010008B0
:1000B0005F0100085F0100085F0100085F010008A0
:1000C0005F0100085F0100085F0100085F01000890
:1000D0005F0100085F0100085F0100085F01000880
:1000E0005F0100085F0100085F0100085F01000870
:1000F0005F0100085F0100085F0100085F01000860
:100100005F0100085F0100085F0100085F0100084F
:100110005F0100085F0100085F0100085F0100083F
:100120005F0100085F0100085F0100085F0100082F
:10013000DFF80CD000F018F800480047A1190008BB
:10014000380400200648804706480047FEE7FEE7DF
:10015000FEE7FEE7FEE7FEE7FEE7FEE7FEE7FEE777
:100160005D16000831010008064C074D06E0E06806
:1001700040F0010394E8070098471034AC42F6D3EE
:10018000FFF7DAFF101A0008301A000800B585B032
:100190000121080301F0F4F80021164801F08AF962
:1001A0004FF00000ADF800004FF48270ADF802008F
:1001B0004FF00000ADF80400ADF80600ADF80800FF
:1001C0004FF40070ADF80A004FF03800ADF80C00A5
:1001D0004FF00000ADF80E004FF00700ADF8100032
:1001E0006946044801F073F90121024801F062F9FF
:1001F00005B000BD0030014000BFFEE7704702E0DF
:10020000A0F1010108460028FAD1704751B14FF022
:10021000204252F8202042F001024FF0204343F8E0
:1002200020200AE04FF0204252F82020034B02EA3F
:1002300003024FF0204343F820207047FEFF0F00D9
:10024000D0E9011241EA0201C26841EA02010269F1
:1002500041EA0201426941EA0201826941EA02017E
:10026000C26941EA0201026A41EA0201426A41EAC4
:100270000201826A41EA0201C26A41EA0201026B9A
:1002800041EA02014FF02043026843F822108168DE
:10029000082908D11A46016852F8211041F040019E
:1002A000026843F82210416B0968426B526841EAC8
:1002B0000211426B926841EA0221426BD26841EA24
:1002C0000241426B126941EA0251426B526941EAB2
:1002D0000261426B926941EA0201026802F1010285
:1002E0004FF0204343F82210C16AB1F5804F1BD173
:1002F000816B0968826B526841EA0211826B9268D5
:1003000041EA0221826B126941EA0251826B526911
:1003100041EA0261826B926941EA0201026803EBE1
:100320008202C2F8041108E06FF070414FF02043E0
:10033000026803EB8202C2F80411704708B501217C
:10034000082001F01DF84FF00300ADF800008DF813
:1003500002004FF010008DF803006946014800F0DC
:1003600003F808BD000C01402DE9F04102464FF0B2
:10037000000C65466646604663466446674691F8EB
:1003800003C00CF00F0C654691F803C01CF0100F71
:1003900004D091F802C04CEA050C6546B1F800C0E3
:1003A0001CF0FF0F3FD0D2F800C064464FF0000CA5
:1003B000604635E04FF0010C0CFA00FC6346B1F8E2
:1003C00000C00CEA030C66469E4226D14FEA800C20
:1003D00063464FF00F0C0CFA03FC674624EA070C47
:1003E000644605FA03FC4CEA040C644691F803C029
:1003F000BCF1280F06D14FF0010C0CFA00FCC2F83A
:1004000014C00AE091F803C0BCF1480F05D14FF0C9
:10041000010C0CFA00FCC2F810C000F1010C60469F
:100420000828C7D31460B1F800C0BCF1FF0F44DD49
:10043000D2F804C064464FF0000C60463AE000F188
:10044000080C4FF0010808FA0CF84346B1F800C058
:100450000CEA030C66469E4229D14FEA800C6346A3
:100460004FF00F0C0CFA03FC674624EA070C6446B5
:1004700005FA03FC4CEA040C644691F803C0BCF195
:10048000280F07D100F1080C4FF0010808FA0CF80A
:10049000C2F8148091F803C0BCF1480F07D100F1F5
:1004A000080C4FF0010808FA0CF8C2F8108000F1AF
:1004B000010C60460828C2D35460BDE8F0810000FA
:1004C000F0B50A464FF0000633463446314635460D
:1004D00000F00046B6F1004F03D1264EF6693146D2
:1004E00002E0244E76683146C0F30346354686B2B4
:1004F000334600F44016B6F5401F09D121F070666E
:1005000031461C4E766826F070661A4F7E601CE0FD
:1005100000F48016B6F5801F0BD14FF0030606FAE3
:1005200005F6344621EA0406314641F0706631464C
:100530000BE04FEA50564FEA061603FA06F621EA98
:100540000606314641F07066314642B14FEA5056D8
:100550004FEA061603FA06F646EA0106314600F0AF
:100560000046B6F1004F02D1024EF16101E0014EAA
:100570007160F0BD0000014041617047016170474A
:1005800000BFFEE710B50446642C09DC04EB8400D0
:100590004FEA40000349088000F006F8012010BD32
:1005A0000020FCE70200002000B589B001210920ED
:1005B00000F0E6FE0121022000F0D0FE4FF0200006
:1005C000ADF820004FF018008DF823004FF0030025
:1005D0008DF8220008A92348FFF7C6FE0121224812
:1005E000FFF76EFF214800682149B0FBF1F0A0F150
:1005F0000100204908804FF00000ADF80A00ADF876
:1006000006008DF80C0008460088ADF8040040F2A2
:10061000E730ADF8080001A9174801F0EDF84FF0F8
:100620006000ADF810004FF00100ADF81200134863
:100630000088ADF816004FF00000ADF8180004A9CE
:100640000D4801F057F808210B4801F0C3F80121CB
:10065000094801F035F80121074801F03EF809B0DA
:1006600000BD0000000C014000081A00200000201E
:1006700040420F0000000020000400400200002063
:1006800010B500F003F800F044F810BD08B50121E2
:10069000080200F051FE0121612000F071FE4FF6CA
:1006A0008070ADF800004FF003008DF802004FF0AD
:1006B00018008DF8030069460948FFF755FE4CF60F
:1006C000B370ADF800004FF003008DF802004FF05A
:1006D00018008DF8030069460248FFF745FE08BD83
:1006E000001801400014014001460BE04FF00002E9
:1006F000104603E000F1010292B2104642F210727D
:100700009042F7DB0A00A1F101039BB21946EDD13B
:10071000704700B597B04FF01E0001904FF00000F9
:1007200002904FF01E0003904FF0000004900590DF
:1007300006900790089009900A904FF010000B90D7
:100740004FF000000C900E900F9010904FF48050DE
:1007500011904FF0000012900D901390149001A88A
:10076000159008A8FFF76CFD4FF0020001904FF0C4
:10077000000002904FF0020003904FF00000049040
:1007800005900690079001A8169008A8FFF758FD5D
:1007900001210020FFF73AFD17B000BD10B5FFF7AB
:1007A0006FFF0520FFF7A0FF4FF000004FF0C041A2
:1007B0000880FF490988FF4801800088A0F513419F
:1007C000253905D0FB480088A0F5134128397DD193
:1007D0001021E72000F0A4FD0121002000F0A0FD81
:1007E0004FF48071012000F09BFD4FF4E061022086
:1007F00000F096FD41F23001032000F091FD002150
:10080000042000F08DFD40F20721082000F088FD53
:100810000021092000F084FD00210A2000F080FD65
:1008200001210C2000F07CFD00210D2000F078FD5E
:1008300000210F2000F074FD0021102000F070FD59
:100840000721112000F06CFD0021122000F068FD4E
:100850000021132000F064FD0520FFF745FF41F261
:100860009051102000F05CFD40F22721112000F093
:1008700057FD0520FFF738FF9C21122000F050FDA6
:100880000520FFF731FF4FF4C851132000F048FD59
:100890002321292000F044FD0E212B2000F040FDF3
:1008A0000520FFF721FF0021202000F039FD002165
:1008B000212000F035FD0520FFF716FF072130202D
:1008C00000F02EFD40F20771312000E085E000F0DD
:1008D00027FD0621322000F023FD40F2047135206F
:1008E00000F01EFD41F60471362000F019FD0421D0
:1008F000372000F015FD0021382000F011FD40F2F6
:100900000671392000F00CFD40F201713C2000F02E
:1009100007FD0F213D2000F003FD0520FFF7E4FE59
:100920000021502000F0FCFCEF21512000F0F8FCE9
:100930000021522000F0F4FC40F23F11532000F05F
:10094000EFFC4FF42741602000F0EAFC0121612018
:1009500000F0E6FC00216A2000F0E2FC002180208B
:1009600000F0DEFC0021812000F0DAFC0021822072
:1009700000F0D6FC0021832000F0D2FC002184206E
:1009800000F0CEFC0021852000F0CAFC1021902050
:1009900000F0C6FC0021922000F0C2FC032193204D
:1009A00000F0BEFC4FF48871952000F0B9FC0021E6
:1009B000972000F0B5FC0021982000F0B1FC40F237
:1009C0003311072000F0ACFC0021202000F0A8FC2F
:1009D0000021212000F0A4FC49E276480088A0F51F
:1009E0001341203904D073480088B0F5134F7ED1ED
:1009F0000021084600F094FC4FF48071012000F0C3
:100A00008FFC4FF4E061022000F08AFC41F21801F3
:100A1000032000F085FC0021042000F081FC40F25E
:100A20000221082000F07CFC0021092000F078FC65
:100A300000210A2000F074FC01210C2000F070FC61
:100A400000210D2000F06CFC00210F2000F068FC5C
:100A50000A20FFF749FE40F20111072000F060FC78
:100A60000A20FFF741FE4FF48651102000F058FC99
:100A70000721112000F054FC4FF48871122000F07F
:100A80004FFC4FF43061132000F04AFC0021292074
:100A900000F046FC44F210012B2000F041FC002144
:100AA000502000F03DFCEF21512000F039FC0021E6
:100AB000522000F035FC40F23F11532000F030FC92
:100AC0004FF41C51602000F02BFC0121612000F04C
:100AD00027FC00216A2000F023FC0021802000F088
:100AE0001FFC0021812000F01BFC002100E02DE014
:100AF000822000F015FC0021832000F011FC002171
:100B0000842000F00DFC0021852000F009FC10215C
:100B1000902000F005FC0021922000F001FC012152
:100B2000932000F0FDFB4FF48871952000F0F8FB56
:100B30000021972000F0F4FB0021982000F0F0FB4A
:100B400040F27311072000F0EBFBE4E31948008842
:100B5000A0F5134131397ED141F21401E72000F0B4
:100B6000DFFB4FF48071012000F0DAFB4FF40071DD
:100B7000022000F0D5FB41F23001032000F0D0FB51
:100B800040F20221082000F0CBFB0021092000F0F8
:100B9000C7FB00210A2000F0C3FB00210C2000F05D
:100BA000BFFB00210D2000F0BBFB00210F2003E064
:100BB000000002600400002000F0B2FB00211020C1
:100BC00000F0AEFB0721112000F0AAFB002112204B
:100BD00000F0A6FB0021132000F0A2FB1420FFF779
:100BE00083FD41F29061102000F09AFB40F2272132
:100BF000112000F095FB0520FFF776FD0C21122057
:100C000000F08EFB0520FFF76FFD4FF4006113200D
:100C100000F086FB1121292000F082FB0B212B2004
:100C200000F07EFB0520FFF75FFD0021202000F093
:100C300077FB0021212000F073FB0021302000F021
:100C40006FFB4FF48371312000F06AFB00213220EA
:100C500000F066FB00E078E04FF40171352000F011
:100C60005FFB41F20A61362000F05AFB40F2077147
:100C7000372000F055FB4FF48371382000F050FB13
:100C800040F20771392000F04BFB40F202413C205A
:100C900000F046FB40F60F413D2000F041FB0021F3
:100CA000502000F03DFBEF21512000F039FB0021E6
:100CB000522000F035FB40F23F11532000F030FB92
:100CC0004FF41C51602000F02BFB0121612000F04B
:100CD00027FB00216A2000F023FB0021802000F088
:100CE0001FFB0021812000F01BFB0021822000F06F
:100CF00017FB0021832000F013FB0021842000F06B
:100D00000FFB0021852000F00BFB1021902000F04C
:100D100007FB4FF4C061922000F002FB2121072065
:100D200000F0FEFA0520FFF7DFFC6121072000F04C
:100D3000F7FA0520FFF7D8FC40F23311072000F046
:100D4000EFFA0520FFF7D0FCE5E2FF480088A0F5A8
:100D5000194119397ED10621282000F0E1FA01213C
:100D6000002000F0DDFA0021102000F0D9FA47F24F
:100D7000EF21012000F0D4FA4FF4C061022000F00E
:100D8000CFFA46F63821032000F0CAFA46F674017D
:100D9000112000F0C5FA00210F2000F0C1FA45F241
:100DA00008310B2000F0BCFA03210C2000F0B8FA47
:100DB0000A210D2000F0B4FA4FF438510E2000F053
:100DC000AFFABE211E2000F0ABFA4FF400412520FF
:100DD00000F0A6FA4FF4F041262000F0A1FA7821A5
:100DE000272000F09DFA00214E2000F099FA002102
:100DF0004F2000F095FA40F6D901122000F090FA49
:100E00000021302000F08CFA4FF48271312000F084
:100E100087FA4FF48071322000F082FA40F20531F7
:100E2000332000F07DFA40F20551342000F078FACA
:100E300040F20531352000F073FA40F20771362098
:100E400000F06EFA4FF44071372000F069FA4FF469
:100E5000905100E00CE03A2000F062FA4FF400619B
:100E60003B2000F05DFA3321072000F059FA52E2EE
:100E7000B5480088A0F5A85105397ED1072000F0BB
:100E80004FFA0520FFF730FC4FF48E71122000F06E
:100E900047FA0121A42000F043FA0F21082000F0B6
:100EA0003FFA08210A2000F03BFA08210D2000F04B
:100EB00037FA40F20771302000F032FA0721312072
:100EC00000F02EFA40F20361322000F029FA4FF4CC
:100ED000E061332000F024FA40F20221342000F0D7
:100EE0001FFA0221352000F01BFA41F60F7136205F
:100EF00000F016FA40F20771372000F011FA0021D5
:100F0000382000F00DFA0021392000F009FA40F2F3
:100F100007713A2000F004FA00213B2000F000FAAB
:100F200007213C2000F0FCF900213D2000F0F8F9F9
:100F30000520FFF7D9FB0121072000F0F1F901217D
:100F4000172000F0EDF90520FFF7CEFB4FF4BD515F
:100F5000102000F0E5F940F21721112000F0E0F92F
:100F60004FF48F71122000F0DBF94FF47061132001
:100F700000F0D6F900212A2000E093E000F0D0F93B
:100F80000A21292000F0CCF94FF49F71122000F0C3
:100F9000C7F90021502000F0C3F9EF21512000F0E3
:100FA000BFF90021522000F0BBF940F23F1153205D
:100FB00000F0B6F94FF41C51602000F0B1F90121A6
:100FC000612000F0ADF900216A2000F0A9F90021AC
:100FD000802000F0A5F90021812000F0A1F9002176
:100FE000822000F09DF90021832000F099F9002172
:100FF000842000F095F90021852000F091F913215B
:10100000902000F08DF94FF44071922000F088F9A3
:101010000521932000F084F90021952000F080F94B
:101020000021972000F07CF90021982000F078F949
:101030004FF48071012000F073F94FF4E061022059
:1010400000F06EF941F23001032000F069F900214F
:10105000042000F065F900210C2000F061F9002166
:101060000F2000F05DF90021202000F059F9002147
:10107000212000F055F92121072000F051F914201A
:10108000FFF732FB6121072000F04AF91420FFF737
:101090002BFB40F27311072000F042F91420FFF7F8
:1010A00023FB38E128480088A0F509418939F8D1A7
:1010B0000121002000F034F90520FFF715FB4AF666
:1010C000A401032000F02CF90520FFF70DFB0021FF
:1010D0000C2000F025F90520FFF706FB40F60C0177
:1010E0000D2000F01DF90520FFF7FEFA4FF42C51FA
:1010F0000E2000F015F90520FFF7F6FAB0211E20AA
:1011000000F00EF90520FFF7EFFA42F63F3101201B
:1011100000F006F90520FFF7E7FA4FF4C06102205E
:1011200000F0FEF80520FFF7DFFA0021102000F0A4
:10113000F7F80520FFF7D8FA46F27001112000F009
:10114000EFF8052002E0000004000020FFF7CCFAD1
:101150000021052000F0E4F80520FFF7C5FA002182
:10116000062000F0DDF80520FFF7BEFA4EF61C71F0
:10117000162000F0D5F80520FFF7B6FA0321172056
:1011800000F0CEF80520FFF7AFFA40F23311072048
:1011900000F0C6F80520FFF7A7FA00210B2000F0A9
:1011A000BFF80520FFF7A0FA00210F2000F0B8F8E3
:1011B0000520FFF799FA0021412000F0B1F8052041
:1011C000FFF792FA0021422000F0AAF80520FFF76D
:1011D0008BFA0021482000F0A3F80520FFF784FADD
:1011E00040F23F11492000F09BF80520FFF77CFA00
:1011F00000214A2000F094F80520FFF775FA00213D
:101200004B2000F08DF80520FFF76EFA4FF46F4188
:10121000442000F085F80520FFF766FA00214520FC
:1012200000F07EF80520FFF75FFA40F23F114620FC
:1012300000F076F80520FFF757FA40F207713020EA
:1012400000F06EF80520FFF74FFA4FF401713120DE
:1012500000F066F80520FFF747FA4FF401713220DD
:1012600000F05EF80520FFF73FFA40F2025133200C
:1012700000F056F80520FFF737FA40F20751342006
:1012800000F04EF80520FFF72FFA4FF401713520DA
:1012900000F046F80520FFF727FA4FF401713620D9
:1012A00000F03EF80520FFF71FFA40F20251372008
:1012B00000F036F80520FFF717FA40F202313A2025
:1012C00000F02EF80520FFF70FFA40F202313B2024
:1012D00000F026F80520FFF707FA0021232000F090
:1012E0001FF80520FFF700FA0021242000F018F86D
:1012F0000520FFF7F9F94FF40041252000F010F820
:101300000520FFF7F1F900214F2000F009F8002136
:101310004E2000F005F80520FFF7E6F910BD0000AB
:101320004FF0C0421080014A1180704700000260F7
:1013300000BFFEE77047704731B1074A526942EA81
:101340000002054B5A6105E0034A526922EA000295
:10135000014B5A61704700000010024031B1074A4A
:10136000D26942EA0002054BDA6105E0034AD2691C
:1013700022EA0002014BDA617047000000100240CF
:1013800031B1074A926942EA0002054B9A6105E0D1
:10139000034A926922EA0002014B9A6170470000F9
:1013A0000010024030B54FF0000529462A462C4671
:1013B0002B463B4D6D6805F00C05294621B10429EB
:1013C00005D008292AD105E0364D056029E0354DC4
:1013D000056026E0324D6D6805F470152A46304DE3
:1013E0006D6805F480352C464FF0020505EB9245FB
:1013F0002A4624B92C4D02FB05F505600DE0284D69
:101400006D6815F4003F04D0274D02FB05F505601B
:1014100003E0244D02FB05F5056002E0214D056067
:1014200000BF00BF1E4D6D6805F0F00529464FEA6C
:10143000111529461D4D6D5C2B46056825FA03F5EF
:101440004560174D6D6805F4E06529464FEA1125A2
:101450002946164D6D5C2B46456825FA03F58560D7
:101460000F4D6D6805F4605529464FEAD125294690
:101470000E4D6D5C2B46456825FA03F5C560084D99
:101480006D6805F4404529464FEA91352946084DD7
:101490006D5C2B46C568B5FBF3F5056130BD0000FA
:1014A0000010024000127A0000093D000B000020ED
:1014B0001B00002021B1028842F04002028005E0BA
:1014C00002884FF6BF7302EA03020280704710B52C
:1014D0004FF000031A4603881A4602F441531A4695
:1014E0000B884C8843EA04038C8843EA0403CC88C5
:1014F00043EA04030C8943EA04034C8943EA0403E6
:101500008C8943EA0403CC8943EA040343EA0203D7
:101510001A460280838B4FF2FF7403EA040383832D
:101520000B8A038210BD704710B500F001F810BDA2
:101530004FF0000211461046324A126842F48032DF
:10154000304B1A6000BF2F4A126802F40032104676
:1015500001F10102114610B9B1F5A06FF3D1294A8A
:10156000126812F4003F03D04FF00102104602E06F
:101570004FF000021046012842D1234A126842F07F
:101580001002214B1A601A46126822F003021A60F8
:101590001A46126842F002021A601A4A5268194B3F
:1015A0005A601A4652685A601A46526842F480627B
:1015B0005A601A46526822F47C125A601A465268DF
:1015C00042F4E8125A601A46126842F080721A60B9
:1015D00000BF0C4A126812F0007FFAD0094A526824
:1015E00022F00302074B5A601A46526842F0020288
:1015F0005A6000BF034A526802F00C02082AF9D16F
:10160000704700000010024000200240042808D16A
:101610004FF0E021096941F004014FF0E02211612F
:1016200007E04FF0E021096921F004014FF0E022CA
:1016300011617047704740B14FF0E021096941F0F6
:1016400002014FF0E022116107E04FF0E02109694B
:1016500021F002014FF0E0221161704710B51448EB
:10166000006840F0010012490860084640681149CE
:1016700000EA01000E494860084600680E4900EA89
:1016800001000B4908600846006820F480200860CB
:101690000846406820F4FE0048604FF41F00886050
:1016A000FFF742FF4FF000600449086010BD0000E2
:1016B000001002400000FFF8FFFFF6FE08ED00E01A
:1016C00021B1028842F08002028005E002884FF6D4
:1016D0007F7302EA03020280704721B1028842F060
:1016E0000102028005E002884FF6FE7302EA03025F
:1016F0000280704770B54FF000052C462A462B46F5
:10170000058C4FF6EF7605EA06050584058C2A461A
:1017100085882B46058B2C4648F6FF7504EA05059F
:101720002C464FF6FF4504EA05052C460D884FEA86
:10173000056544EA15452C464FF6DF7502EA0505B6
:101740002A460D894FEA055542EA15452A464D8835
:101750004FEA055542EA15452A461C4DA84202D0DB
:101760001B4DA8422BD14FF67F7502EA05052A468C
:101770004D894FEA055542EA15452A464FF6BF7591
:1017800002EA05052A468D884FEA055542EA1545C5
:101790002A464FF6FF3503EA05052B464FF2FF7543
:1017A00003EA05052B468D894FEA854543EA154531
:1017B0002B46CD894FEA854543EA15452B46838064
:1017C0000483CD880587028470BD0000002C014091
:1017D000003401400A464FF000031946038B1946B6
:1017E0004FF2FF7301EA030319464FEA026341EA2D
:1017F00013431946018370474FF000031A460388CC
:101800001A46224B98420ED0214B98420BD0B0F191
:10181000804F08D01F4B984205D01F4B984202D0F2
:101820001E4B984208D14FF68F7302EA03031A4603
:101830004B8843EA02031A46194B98420BD0194BC6
:10184000984208D04FF6FF4302EA03031A46CB88BA
:1018500043EA02031A4602808B8883850B8803853E
:101860000A4B98420BD00A4B984208D00E4B984234
:1018700005D00E4B984202D00D4B984201D10B7A05
:1018800003864FF00103838270470000002C014063
:10189000003401400004004000080040000C0040FB
:1018A000001000400014004000400140004401408E
:1018B0000048014008B501212420FFF761FD4FF0E9
:1018C000E000ADF800004FF018008DF803004FF075
:1018D00003008DF8020069461548FEF745FD4FF4F8
:1018E0008050ADF800004FF010008DF803004FF06D
:1018F00003008DF8020069460E48FEF735FD4FF4EF
:101900000050ADF800004FF048008DF803004FF094
:1019100003008DF8020069460648FEF725FD4FF4E6
:1019200080510448FEF72AFEFEF730FC08BD000097
:10193000000801400014014000BFFEE702E008C8B3
:10194000121F08C1002AFAD170477047002001E039
:1019500001C1121F002AFBD17047000000B585B0FD
:101960006846FFF71FFD6FF00400FFF74FFE0020F1
:10197000FFF761FE07490198B0FBF1F006490870D6
:101980004FF4FA510198B0FBF1F00449088005B01A
:1019900000BD000000127A000600002008000020B0
:1019A000FEF7FCFEFEF700FEFEF7C8FCFFF7D6FFD1
:1019B000FFF780FF0A20FEF7E5FD21E00121114835
:1019C000FEF7DCFD02210F48FEF7D6FD0E48FEF7BC
:1019D00016FC0D48FEF713FC0C48FEF710FC012125
:1019E0000848FEF7C9FD02210648FEF7C7FD064874
:1019F000FEF705FC0448FEF702FC0448FEF7FFFB77
:101A0000DCE70000000C0140FFFF0F00FFFF0500B6
:101A1000301A000800000020340000003C190008C3
:101A2000641A000834000020040400004C19000867
:101A30000000E803000000000000000000000001BA
:101A40000203040102030406070809020406080051
:101A500000A24A040000000000000000010203048C
:041A60000607080964
:0400000508000131BD
:00000001FF
