:020000040800F2
:10000000B06800204501000823AB00088B8A000877
:100010001FAB0008D11000087FE6000800000000B8
:100020000000000000000000000000002FE00008B9
:10003000D511000800000000AB01000815E1000820
:100040005F0100085F0100085F0100085F01000810
:100050005F0100085F0100085F0100085F01000800
:100060005F0100085F0100085F0100085F010008F0
:100070005F0100085F0100085F0100085F010008E0
:100080005F0100085F0100085F0100085F010008D0
:100090005F0100085F0100085F0100085F010008C0
:1000A0005F0100085F0100085F0100085F010008B0
:1000B0005F0100085F0100085F0100085F010008A0
:1000C0005F0100085F0100085F0100085F01000890
:1000D0005F01000819E400085F0100085F010008E3
:1000E0005F0100085F0100085F0100085F01000870
:1000F0005F0100085F0100085F0100085F01000860
:100100005F0100085F0100085F0100085F0100084F
:100110005F0100085F0100085F0100085F0100083F
:100120005F0100085F0100085F0100085F0100082F
:10013000DFF80CD000F040FD00480047E9890108D5
:10014000B06800200648804706480047FEE7FEE703
:10015000FEE7FEE7FEE7FEE7FEE7FEE7FEE7FEE777
:100160003DE1000831010008EFF3108072B67047DE
:1001700080F3108870471D484FF0FF010170002088
:1001800080F309881A48012101701A484FF0805104
:10019000016062B6FEE717484FF08051016070477A
:1001A00014484FF080510160704772B6EFF3098038
:1001B00028B1203880E8F00F0F490968086000B5C1
:1001C0000E4880475DF804EB0D480E490A7802702E
:1001D00009480D490A680260106890E8F00F203065
:1001E00080F309884EF0040E62B6704722ED00E0FD
:1001F0006A00002004ED00E07000002095B80008BF
:100200005F000020600000207800002072B6704778
:1002100062B67047EFF3108072B6704780F31088B3
:100220007047B0FA80F0704790FAA0F0704730BF86
:10023000704720BF704700000649074A08685043CE
:1002400043F23902104408604008704701490860D1
:10025000704700005C0400206D4EC64110B5431A83
:10026000934209D28318881803E010F8011D03F89F
:10027000011D521EF9D210BD40EA01039B0703D0B5
:1002800009E008C9121F08C0042AFAD203E011F8D5
:10029000013B00F8013B521EF9D210BDD2B201E081
:1002A00000F8012B491EFBD270470022F6E710B57B
:1002B00004460846114602462046FFF7EFFF204657
:1002C00010BD034600E0401C0278002AFBD111F863
:1002D000012B00F8012B002AF9D11846704701467E
:1002E000002000E0401C0A5C002AFBD1704730B5BA
:1002F00004460020034600E05B1C934203D2E05C0E
:10030000CD5C401BF8D030BD034611F8012B00F83E
:10031000012B002AF9D118467047F0B480EA010297
:10032000D20F4300B3EB410F02D2034608461946F1
:100330004B0042D0C30DDDB2C1F3C7542C1B202C9F
:1003400035DAC1F3160141F4000502B16D42C4F182
:10035000200605FA06F125412844B3EBD05F23D0EF
:10036000C2B1012CA0EBC35009DCF0BC4FF000423D
:1003700002EAC35200F50000DBB200F025BB4000EA
:1003800000F1807000EBC350A0F1807040EAD170A2
:10039000490009E0490841EAC071A0EBC35000F5EB
:1003A0000000400800EBC350F0BC00F004BB514219
:1003B000012303EB4101801AF6E7F0BC704781F09E
:1003C0000041AAE780F00040A7E780EA010210B5EB
:1003D00002F00042400026D04B0023D04FEA1061CB
:1003E00001EB1361C0F35600C3F3560340F4000061
:1003F00043F40003A0FB0330A1F17F014FEA00406A
:100400001C0401D000F1010050EA134001D4400067
:10041000491EC3B20C0604EBD010401C4008802BD0
:1004200002D003E0002010BD20F00100002900DA16
:100430000020104310BD80EA010202F0004330B4F6
:1004400030F0004221F0004015D0A0B1C0F3C755F4
:10045000C2F3C754C2F31601C0F31600651B41F482
:10046000000140F400007D35814201D36D1C00E0A5
:100470004900002D02DA30BC002070474FF4000222
:100480000024814201D3091A144352084FEA410162
:10049000F7D151B1814202D14FF0004105E002D2C3
:1004A0004FF0010101E06FF0010104EBC55030BCD9
:1004B000184400F080BA2DE9FE4F074681EA030098
:1004C000C00F0E46019021F0004123F00044B81AFD
:1004D000A14105D23846314617461E460B46024614
:1004E00023F00040104304D13846314603B0BDE844
:1004F000F08F350DC5F30A00C3F30A510290401A7C
:10050000009040286ADAC3F3130040F48010834659
:100510000198924630B10023D2EB030163EB0B004C
:100520008A46834600985946C0F14002504600F082
:1005300011FA80460C4650465946009A00F029FAB6
:10054000C0197141EF1785EA11533B433FD0019A1F
:100550004AB3009A012A11DC0022801A4FF00043AE
:1005600061EB055103EA05538018CDE9002341F5FD
:1005700080114246234600F061FAB7E72E050025B8
:10058000401B61EB0601401941F5801200185241F1
:100590002818A6F5001343EB020140EAD47018EBCB
:1005A0000808644113E064084FEA38084FF000027D
:1005B00044EAC0744FEA0553801A61EB03018018C6
:1005C00041F5801149084FEA3000801859414246F0
:1005D000234603B0BDE8F04F00F023BA0198012292
:1005E00040000023D0EB020263EBE07301984FEA76
:1005F000E074381A66EB0401EBE783F000435AE736
:1006000081F0004157E72DE9FE4F81EA03040026FF
:1006100021F0004504F0004423F00041B24600946C
:1006200050EA050302D052EA010304D1002001463A
:1006300003B0BDE8F08FC5F30A54C1F30A53C1F308
:1006400013011C4441F48018A0FB0213C5F31305E9
:1006500045F4801C0CFB023300FB083E8B46A4F2E1
:10066000F334810A930A41EA8C5143EA8853019496
:10067000A1FB03474FEA9C2505FB03734FEA98262D
:1006800001FB06373D05260545EA1435BBEB06019F
:100690006EEB0503850E920E45EA8C1542EA881230
:1006A000A5FB0206261E67EB00070C0D44EA033487
:1006B000A61947EB1350C1F313044FF0000319467A
:1006C000E5FB02014FEA033343EA14534FEA0432D5
:1006D000019C43EA0603A4F10C040294009CCDE9BA
:1006E00000A400F0ABF9A3E72DE9F04D81EA030483
:1006F00004F00044A34621F000474FF0000C1446DC
:10070000E24623F0004150EA070220D054EA0102F9
:100710001DD0C1F30A550246C1F31300C7F30A56B0
:10072000C7F3130340F4801143F48013A6EB0508CC
:10073000101BD64608F2FD3873EB010002D308F116
:10074000010801E092185B41B8F1000F03DA0020C4
:100750000146BDE8F08D00204FF48015064607469F
:100760000EE0B2EB040C73EB010C04D3121B064336
:1007700063EB01032F436D084FEA300092185B4191
:1007800050EA050CEDD152EA030012D082EA0400CF
:1007900083EA0105284303D100224FF0004308E01B
:1007A000101B8B4102D20122002302E06FF00102F4
:1007B00053101AEB060047EB085110EB0A0041EB0F
:1007C0000B01BDE8F04D00F02CB9C10F80EAE070DC
:1007D0000844CA079623002100F0F6B80EB5C10FF1
:1007E00080EAE0700844CA07002140F233438DE8F4
:1007F0000E000A460B4600F021F903B000BD0EB50D
:1008000040F2334102910021CDE900110A460B4626
:1008100000F014F903B000BD00F0004220F00040E9
:10082000C10DC0F3160040F400007F2901DA00205A
:100830007047962903DCC1F19601C84001E0963962
:100840008840002AF4D04042704770B5C1F30A5284
:1008500001F000450024C1F3130140F2FF3341F4DD
:1008600080119A4201DA002070BD40F233439A426F
:10087000A2F2334203DC524200F07BF800E09040E9
:100880002C43F1D0404270BD00F0004230F00040F7
:100890000DD0C10D01F5607142EA01510022C0F393
:1008A0001600520742EAD002400711437047002069
:1008B0000146704730B5002904DB4FF00044404248
:1008C00064EB0101002B05DB4FF00044524264EB66
:1008D000030423468B4208BF824230BD01F0004230
:1008E00030B421F0004150EA010306D00B0DA3F50E
:1008F0006073C1F31301002B02DC30BC0020704791
:10090000440F44EAC104C100A01830BC00EBC3503E
:1009100000F051B8002801DBC0F10040002901DBE4
:10092000C1F100418142704730B50B4601460020BD
:100930002022012409E021FA02F59D4205D303FAA1
:1009400002F5491B04FA02F52844151EA2F1010222
:10095000F1DC30BD202A04DB203A00FA02F100204D
:1009600070479140C2F1200320FA03F319439040ED
:100970007047202A04DB203A21FA02F00021704758
:1009800021FA02F3D040C2F12002914008431946F7
:100990007047202A06DBCB17203A41FA02F043EADF
:1009A000E07306E041FA02F3D040C2F12002914028
:1009B0000843194670470029A8BF7047401C4900EA
:1009C00008BF20F00100704710B4B0FA80FC00FAB4
:1009D0000CF050EA010404BF10BC704749B1CCF1DF
:1009E000200421FA04F411FA0CF118BF012121436B
:1009F0000843A3EB0C01CB1D0106000A002BBEBF70
:100A0000002010BC704700EBC35010440029A4BF65
:100A100010BC7047401C490008BF20F0010010BC0A
:100A2000704710B5002B08DA401C41F10001921804
:100A30005B411A4301D120F0010010BD2DE9FF4DAB
:100A4000934611B1B1FA81F202E0B0FA80F220329D
:100A50009246FFF77FFF039A0746884640EA0B005D
:100A600011435B46084304D13846414604B0BDE813
:100A7000F08D114653EA010018D0CAF140025846E1
:100A8000FFF777FF04460D464FF0010658465246E1
:100A90000399FFF75FFF084300D10026344345EA7E
:100AA000E6753C4345EA08052746A8460E984FF0F0
:100AB0000005A0EB0A014FEAD7200A314FEA47535D
:100AC0002A4640EA48504FEAD82402D50020014681
:100AD000CCE7281844EB0151DDE90C45001904B0BE
:100AE0006941BDE8F04D9CE770B521F00043034338
:100AF0000CD0C1F30A540026D4EB060566EB0603BE
:100B0000D417AD1AA34102DB0020014670BD001CC2
:100B100041EB025170BD2DE9F04D00231A461B1A1E
:100B20008A4103DB00200146BDE8F08DC1F30A5283
:100B3000C1F3130141F480154FF0000BD10702D12E
:100B400000186D41521E002740F2FF11044601EBD0
:100B5000620138468A463E468046024600204FF4EF
:100B60008011FFF706FFC01971413B1846EB0102E7
:100B7000B4EB030C75EB020C04D3E41A65EB02052D
:100B800007460E46241908F101006D4180463428BD
:100B9000E3DDF81946EB06014FF0FF32001B134668
:100BA000A94101D3002213461BEB070046EB0A5173
:100BB000BDE8F04DFFF735BF064C074D06E0E06895
:100BC00040F0010394E8070098471034AC42F6D394
:100BD000FFF7B2FAB0B90308D0B9030870B501EB5A
:100BE000020410F8015B15F0070301D110F8013B76
:100BF0002A1106D110F8012B03E010F8016B01F85F
:100C0000016B5B1EF9D12B0705D40023521E0FD4B4
:100C100001F8013BFAE710F8013B02F10202A1EBF7
:100C2000030303E013F8015B01F8015B521EF9D5E1
:100C3000A142D6D3002070BD00B585B001210803C4
:100C40000CF092FD002116480DF0A4F94FF00000C1
:100C5000ADF800004FF48270ADF802004FF00000D4
:100C6000ADF80400ADF80600ADF808004FF40070D0
:100C7000ADF80A004FF02800ADF80C004FF000006E
:100C8000ADF80E004FF00700ADF8100069460448BB
:100C90000DF0A1F9012102480DF07CF905B000BD6D
:100CA0000030014001B56946024800680AF0F6F9D3
:100CB00008BD00000000002000B587B09DF81800B6
:100CC00006904FF4E1300BF09FFA11480BF0B0FCA6
:100CD0000BF014FC00200AF015F90E4908600320FF
:100CE00000214FF480720C4BCDE90132CDE90310A5
:100CF00039200346094A009009480AF0EBFB0690A8
:100D000006AA08A139200AF051FC07B000BD000076
:100D1000A50C0008000000206413002060170020CC
:100D2000858B01085461736B204F5356696577209A
:100D30005465726D696E616C00000000704710B5FB
:100D4000FFF7BAFF00F022F810BD10B504462046A8
:100D50000BF04CFC10BD704702F07CFA0BF0B4FEB7
:100D60000AF02EFBFFF7EBFF00BF00231A4601211C
:100D700018460AF0D9FDF8E7704710B50BF040FCB3
:100D800010BD10B50BF05AFC10BD000008B59DF861
:100D9000000000900523124A002112480AF040FB8F
:100DA00000906A4610A105200AF000FC0423114AB5
:100DB000002111480AF034FB00906A460FA104207C
:100DC0000AF0F4FB3B23144A002114480AF028FBE4
:100DD00000906A4612A13B200AF0E8FB08BD000023
:100DE000600D0020918C01085461736B20554347BE
:100DF0005549000060110020798C01085441534B83
:100E000020546F75636850616E656C204D65737317
:100E1000616765730000000060130020418B0108CA
:100E20005461736B204C454420426C696E6B00002A
:100E300070B50446B4F90450284604F065FF064630
:100E4000214628460DF03FFC00B970BD20680B28F4
:100E50000FD00C2802D00F280FD105E022463146D2
:100E6000284614F02EFFF0E72946304615F089F8A1
:100E7000EBE7304610F006F900BF00BF20460DF04A
:100E8000A7FF00BFE1E72DE9FF4704460D461646E0
:100E90001F46DDE90C890022CDE900293B46CDE95A
:100EA000022832462946204600F01CF804B0BDE86E
:100EB000F0872DE9FF4704460D4616461F46DDE93B
:100EC0000D9ADDF8308000223B46CDE9008ACDE95D
:100ED000022932462946204600F004F804B0BDE855
:100EE000F08700002DE9FF5F06460F4690469946C1
:100EF000DDE90FAB00BF06F009F93023114A1FFAF4
:100F00008AF10E988DE80F004B464246394630462E
:100F10000DF0BAFE04467CB1204604F0F5FE05460D
:100F20001022284611990DF019FE2022064905F1DC
:100F30002800FFF793F900BF07F024FA204604B019
:100F4000BDE8F09F310E0008500300202DE9FF4757
:100F500004460D4616461F46DDF8308000BFB4F942
:100F60000830628A0021CDE90051CDE90223B4F9AD
:100F70001030B4F90E20B4F90CC00CEB0701B4F931
:100F80000AC00CEB0600FFF7ADFF814648466168DA
:100F900000F067F8484604B0BDE8F0872DE9F0415D
:100FA00005460C4616468DB1022C0FD806F0AEF859
:100FB000284604F0A9FE074607F1280040F82460FF
:100FC00028460EF0FFFA07F0DDF900BFBDE8F0811A
:100FD00070B505460C4624B1102128460DF0F0FBF3
:100FE00003E0102128460DF04CFB70BD70B504469F
:100FF0000D4664B106F08AF8204604F085FE0646E8
:10100000356420460EF0DEFA07F0BCF900BF70BD73
:10101000F8B504460D4616460023324629462046BA
:10102000009300F001F8F8BD2DE9F04706460F46A1
:1010300014461D46DDF8208042462946204605F02C
:10104000FFF9814602463946304600F021F8BDE8F6
:10105000F08770B504460D46294620460DF0D7FBB3
:1010600070BD70B504460D468CB106F04FF82046B1
:1010700004F04AFE0646294606F1480007F059FCEE
:1010800010B120460EF09EFA07F07CF900BF70BD4B
:101090002DE9F04105460C461646BDB106F036F87E
:1010A000284604F031FE0746032C0CD807F14A010C
:1010B00001EB440004F093FD07F14A0020F81460AE
:1010C00028460EF07FFA07F05DF900BFBDE8F08119
:1010D00000BFFEE71CB504462448408C2349096C38
:1010E000084400B2214948840846808C496C084471
:1010F00000B21E498884204605F0E4FE1B49498C55
:10110000ADF800100844401E00B2ADF8040005F030
:1011100019FF1649898CADF802100844401E00B230
:10112000ADF8060068460EF00FFF38B100BF20464C
:1011300001F0B4FD0EF082FE0028F8D10A2C05D093
:10114000BDF80400401C00B2084948840748408CA0
:101150000649096C401A00B2044948840846808C4C
:10116000496C401A00B2014988841CBD746000209B
:1011700014488088134991F85C10484300B2124922
:1011800008801048C0880F4991F85C10484300B2AD
:101190000D4948800B480089401C0A4991F85C10B1
:1011A0004843401E00B20849888006484089401CD8
:1011B000044991F85C104843401E00B20249C880BF
:1011C0007047000074600020AC020020024641EA33
:1011D00002207047704710B54FF0000211460DE035
:1011E0004FF00C031A4600BF1300A2F10104E4B251
:1011F0002246F9D101F1010292B211468142EFD3A8
:1012000010BD00002DE9F04105460E4617461C466C
:101210003119E819184B9B6D5A6890473119E81B32
:10122000154B9B6D5A689047F1192819124B9B6D0D
:101230005A689047F11B28190F4B9B6D5A689047CD
:10124000BCB1311BE8190C4B9B6D5A689047311BA0
:10125000E81B094B9B6D5A689047F119281B064BF8
:101260009B6D5A689047F11B281B034B9B6D5A6876
:101270009047BDE8F0810000746000202DE9F04146
:1012800004460F4615461E461748007B10F0020F15
:1012900012D10EE028880246B9B2A0B209F0E8F8EF
:1012A000A6F10100064604F10100044605F1020022
:1012B0000546002EEEDC15E012E0B5F80080B8F12E
:1012C000000F04D04246B9B2A0B209F0D1F8A6F19D
:1012D0000100064604F10100044605F1020005463E
:1012E000002EEADCBDE8F081746000202DE9F84FA3
:1012F00004460F4690469946DDE90A5ABAF80000BE
:101300000090BAF80200834698F800000646E648C6
:10131000007B10F0030004D0012828D0022839D126
:1013200012E009F0070008280DD2DFE800F00405FC
:10133000060708090A0BAFE0BFE0D0E0E1E0F2E009
:1013400003E114E125E125E009F0070008280DD2AA
:10135000DFE800F00405060708090A0B1CE02AE094
:1013600038E046E054E062E070E07EE012E009F030
:10137000070008280DD2DFE800F004050607080979
:101380000A0B20E12CE138E144E150E15CE168E145
:1013900074E100BF00BF00BF16F0800F04D05A46B2
:1013A000B9B2A0B209F064F8A5F10100050001D1BD
:1013B000BDE8F88F00BF16F0400F05D05A46B9B20D
:1013C000601C80B209F054F8A5F10100050000D1BD
:1013D000EEE700BF16F0200F05D05A46B9B2A01CA8
:1013E00080B209F045F8A5F10100050000D1DFE762
:1013F00000BF16F0100F05D05A46B9B2E01C80B2FB
:1014000009F036F8A5F10100050000D1D0E700BFD2
:1014100016F0080F05D05A46B9B2201D80B209F067
:1014200027F8A5F10100050000D1C1E700BF16F0C3
:10143000040F05D05A46B9B2601D80B209F018F801
:10144000A5F10100050000D1B2E700BF16F0020FC0
:1014500005D05A46B9B2A01D80B209F009F8A5F12D
:101460000100050000D1A3E700BF16F0010F05D071
:101470005A46B9B2E01D80B208F0FAFFA5F10100AA
:10148000050000D194E704F10800044608F10100CA
:101490008046007806467FE716F0800F01D0584658
:1014A00000E0009882B2B9B2A0B208F0E1FFA5F165
:1014B0000100050000D17BE700BF16F0400F01D00E
:1014C000584600E0009882B2B9B2601C80B208F0C1
:1014D000CFFFA5F10100050000D169E700BF16F0BC
:1014E000200F01D0584600E0009882B2B9B2A01C8B
:1014F00080B208F0BDFFA5F10100050000D157E75B
:1015000000BF16F0100F01D0584600E0009882B2DC
:10151000B9B2E01C80B208F0ABFFA5F101000500F4
:1015200000D145E700BF16F0080F01D0584600E093
:10153000009882B2B9B2201D80B208F099FFA5F1DF
:101540000100050000D133E700BF16F0040F01D001
:10155000584600E0009882B2B9B2601D80B208F02F
:1015600087FFA5F10100050000D121E700BF16F0BB
:10157000020F01D0584600E0009882B2B9B2A01D17
:1015800080B208F075FFA5F10100050000D10FE75A
:1015900000BF16F0010F01D0584600E0009882B25B
:1015A000B9B2E01D80B208F063FFA5F101000500AB
:1015B00000D1FDE604F10800044608F10100804670
:1015C0000078064668E716F0800F03D039462046BB
:1015D00008F009FEA5F10100050000D1E8E600BF12
:1015E00016F0400F03D03946601C08F0FCFDA5F151
:1015F0000100050000D1DBE600BF16F0200F03D08C
:101600003946A01C08F0EFFDA5F10100050000D14E
:10161000CEE600BF16F0100F03D03946E01C08F0EC
:10162000E2FDA5F10100050000D1C1E600BF16F002
:10163000080F03D03946201D08F0D5FDA5F10100A3
:10164000050000D1B4E600BF16F0040F03D0394600
:10165000601D08F0C8FDA5F10100050000D1A7E656
:1016600000BF16F0020F03D03946A01D08F0BBFDE5
:10167000A5F10100050000D19AE600BF16F0010FA8
:1016800003D03946E01D08F0AEFDA5F101000500CC
:1016900000D18DE604F10800044608F101008046FF
:1016A000007806468FE70000746000202DE9F047BF
:1016B00004460E4691469A46DDE9087899F80000FE
:1016C0000546B8F1000F75D0B148007B10F0020F4D
:1016D0000BD01AF0030004D0012803D0022803D154
:1016E00001E057E068E07BE08EE01AF0030004D0F0
:1016F000012803D0022803D101E002E010E020E03D
:1017000030E0A81138F810000246B1B2A0B208F0DB
:10171000AFFEA7F10100070001D1BDE8F08700BFCF
:10172000032000EA251038F810000246B1B2601C10
:1017300080B208F09DFEA7F10100070000D1ECE7A0
:1017400000BF032000EAA50038F810000246B1B23D
:10175000A01C80B208F08CFEA7F10100070000D1A8
:10176000DBE700BF05F0030038F810000246B1B215
:10177000E01C80B208F07CFEA7F10100070000D158
:10178000CBE709F1010081460078054604F1040029
:101790000446B6E715F0C00F07D0A81138F81000BE
:1017A0000246B1B2A0B208F063FEA7F10100070043
:1017B00001D1B2E743E000BF15F0300F0AD003209B
:1017C00000EA251038F810000246B1B2601C80B261
:1017D00008F04EFEA7F10100070000D19DE700BF11
:1017E00015F00C0F0AD0032000EAA50038F810000D
:1017F0000246B1B2A01C80B208F03AFEA7F1010087
:10180000070000D189E700BF15F0030F09D005F0EC
:10181000030038F810000246B1B2E01C80B208F0B4
:1018200027FEA7F10100070000D176E709F10100CA
:1018300081460078054604F104000446AAE75448AE
:10184000007B10F0020F0BD01AF0030004D0012827
:1018500003D0022803D101E04EE05CE06DE07EE0C1
:101860001AF0030004D0012803D0022803D101E0BC
:1018700002E00DE01BE029E0A8110246B1B2A0B2DF
:1018800008F0F6FDA7F10100070000D145E700BF11
:10189000032000EA25100246B1B2601C80B208F0B5
:1018A000E7FDA7F10100070000D136E700BF0320E4
:1018B00000EAA5000246B1B2A01C80B208F0D8FD33
:1018C000A7F10100070000D127E700BF05F00300E2
:1018D0000246B1B2E01C80B208F0CAFDA7F10100D7
:1018E000070000D119E709F101008146007805469B
:1018F00004F104000446BFE715F0C00F05D0A8119D
:101900000246B1B2A0B208F0B3FDA7F10100070092
:1019100000D102E700BF15F0300F08D0032000EA25
:1019200025100246B1B2601C80B208F0A1FDA7F1FB
:101930000100070000D1F0E600BF15F00C0F08D041
:10194000032000EAA5000246B1B2A01C80B208F054
:101950008FFDA7F10100070000D1DEE600BF15F002
:10196000030F07D005F003000246B1B2E01C80B2BD
:1019700008F07EFDA7F10100070000D1CDE609F1D6
:10198000010081460078054604F104000446B3E7EF
:10199000746000202DE9F04704460E4690469946B3
:1019A000DDE9087A98F800000546BAF1000F60D02A
:1019B0005C48007B10F0020F04D019F0010F00D139
:1019C0002CE03BE019F0010F00D100E00EE02811FF
:1019D0003AF810000246B1B2A0B208F049FDA7F1F2
:1019E0000100070001D1BDE8F08700BF05F00F003E
:1019F0003AF810000246B1B2601C80B208F038FD1F
:101A0000A7F10100070000D1EDE704F10200044650
:101A100008F10100804600780546D8E7281107D074
:101A200028113AF810000246B1B2A0B208F020FD29
:101A3000A7F10100070000D1D5E700BF15F00F0F97
:101A400009D005F00F003AF810000246B1B2601C50
:101A500080B208F00DFDA7F10100070000D1C2E738
:101A600004F10200044608F10100804600780546B2
:101A7000D4E72C48007B10F0020F04D019F0010FBE
:101A800000D127E034E019F0010F00D100E00BE0B5
:101A900028110246B1B2A0B208F0EAFCA7F1010099
:101AA000070000D19FE700BF05F00F000246B1B26A
:101AB000601C80B208F0DCFCA7F10100070000D137
:101AC00091E704F10200044608F101008046007825
:101AD0000546DDE7281105D028110246B1B2A0B2B3
:101AE00008F0C6FCA7F10100070000D17BE700BFAA
:101AF00015F00F0F07D005F00F000246B1B2601CC1
:101B000080B208F0B5FCA7F10100070000D16AE738
:101B100004F10200044608F1010080460078054601
:101B2000D8E70000746000202DE9F047044688469D
:101B300015461E46DDF820903048007B10F0020F5D
:101B40002CD1B9F1000F15D011E02F7839F817001A
:101B500002461FFA88F1A0B208F08AFCA6F1010043
:101B6000064604F10100044605F101000546002E79
:101B7000EBDC41E00FE0287802461FFA88F1A0B2C2
:101B800008F076FCA6F10100064604F101000446C7
:101B900005F101000546002EEDDC2DE0B9F1000F46
:101BA00016D012E02F783FB139F8170002461FFA1D
:101BB00088F1A0B208F05CFCA6F10100064604F131
:101BC0000100044605F101000546002EEADC13E0A1
:101BD00010E02F782FB13A461FFA88F1A0B208F032
:101BE00047FCA6F10100064604F10100044605F198
:101BF00001000546002EECDCBDE8F0877460002093
:101C00002DE9F04107460D46002F71D005F07EFA10
:101C1000384604F079F80446002C6AD0E06C20B114
:101C200029463846E26C904794E0122D4AD008DCF1
:101C3000082D53D00D2D75D0102D49D0112D73D1F5
:101C400008E0132D22D01B2D6DD01D2D57D01E2D39
:101C50006AD14FE0208DC0B1B4F9280004F054F8E7
:101C600006463046216C06F037FA0644304606F048
:101C7000F5F98046B8F17F0F06DA08F101003070FF
:101C8000052138460DF021FD00BF62E0208DC0B176
:101C9000B4F9280004F038F806463046216C06F006
:101CA0001BFA0644304606F0D9F98046B8F1200FF9
:101CB00006DDA8F101003070052138460DF005FD64
:101CC00000BF46E0206C411C204600F003FB40E0D2
:101CD000206C411E204600F0FDFA3AE0206C411EC7
:101CE000204600F0F7FA214638460FF0FEF930E0C2
:101CF00036E032E0214638460FF0F7F929E094F853
:101D00004800012803D1002084F8480006E00120A3
:101D100084F848002046216C00F0DCFA19E001E06C
:101D200002E000E000BF14E0202D11DB94F8480031
:101D300018B1214638460FF0D8F9AAB221463846E4
:101D400013F010F920B1206C411C204600F0C2FABB
:101D500000BF00BF38460DF035FC06F013FB00BF96
:101D6000BDE8F0812DE9F04786B004460D461646E1
:101D70001F46DDE90F9ADDF838800021CDE901A189
:101D80003B463246CDE9038900912946204600F0C2
:101D900003F806B0BDE8F0872DE9FF4F85B0074690
:101DA00088469146DDF858B0DDE9135A00BF45F486
:101DB000805550231F4AA8B240F0020112988DE8C6
:101DC0000F004A4641463846089B0CF05DFF064628
:101DD00066B305F09BF9304603F096FF04461022E7
:101DE000204615990CF0BAFE1C22134904F1540048
:101DF000FEF734FA012084F84900BBF1000F01D14D
:101E0000082000E0584600B260850020A0852085AB
:101E1000B4F92A00411C204613F042F818B93046A4
:101E20000DF00AF8002606F0ADFA00BF304609B002
:101E3000BDE8F08F4B220008700300202DE9F0432D
:101E400085B004460D4616461F46DDF8309000BFAB
:101E5000B4F90820618A00206369CDE9005002A826
:101E60000EC0B4F91030B4F90E20B4F90CC00CEB6C
:101E70000701B4F90AC00CEB0600FFF78DFF80469E
:101E8000B8F1000F03D0618A404600F0A5F9404642
:101E900005B0BDE8F08300002DE9F047074688460D
:101EA00091461E4605F032F957B3384603F02CFF31
:101EB00004461548E06415482065C4F83C800020BD
:101EC0002064B4F92A50002D03DC304612F0B2FD34
:101ED0000546202D00DD2025B4F92A00A84203D0B4
:101EE0002946384600F0E2F8C4F8309066630120D5
:101EF00084F84800384615F059FA38460DF062FB70
:101F000006F040FABDE8F08723080108AD73010828
:101F10002DE9F34F83B00C460398002871D005F0EB
:101F2000F5F8039803F0F0FE0546288D002865D0EB
:101F3000B5F9280003F0E8FE0190E86D05F0D8FE41
:101F4000029003980DF09EF98346019805F00CF875
:101F50008046686D00F00300012809D002280ED1E8
:101F6000ABEB0801481C00EBD071A4EB61040DE061
:101F7000ABEB0801A86D401C081A241A06E0A86DF6
:101F8000401C296A49690844241A00BF00BF01980F
:101F900006F03CFC0646002C04DA0021284600F03E
:101FA00099F924E0444504DD3146284600F092F9D1
:101FB0001DE04FF00009CA460FE001A806F078F8CE
:101FC0000090009804F07EFF07460AEB0700A0424D
:101FD00000DD06E0BA4409F10109B14501DAA24584
:101FE000EBDB00BF4946284600F074F900BF0298B9
:101FF00005F07EFE03980DF0E5FA00BF06F0C2F989
:1020000000BF05B0BDE8F08F70B505460E4605B9B6
:1020100070BD05F07BF8284603F076FE04461CB13F
:10202000E66528460DF0CEFA06F0ACF900BFEFE702
:102030002DE9F0470746884691461E4605F066F8AA
:102040005FB3384603F060FE04461648E064164865
:102050002065C4F83C8000202064B4F92A50002D8B
:1020600003DC304612F0EEFC0546082D00DD0825A5
:10207000B4F92A00A84203D02946384600F016F8E1
:10208000C4F830906663012084F84800384615F0A3
:102090009FF938460DF096FA00BF06F073F9BDE8D7
:1020A000F0870000C3080108D17301082DE9F0474B
:1020B00006460D4696B305F029F8304603F024FE97
:1020C0000446B4F92A00A84225D0B4F92A00A8424F
:1020D00016DD208DA0B1B4F9280003F015FE0746E7
:1020E000384606F093FB8046A84508DD2946384669
:1020F00005F0F2FF8146002007F8090000BF00BF8D
:10210000A08D281A411C204612F0CAFE28B2608514
:1021100030460DF057FA06F035F900BFBDE8F087FC
:102120002DE9F04780460F46B8F1000F52D004F079
:10213000EDFF404603F0E8FD0446002F3DD04FF090
:102140000009208D50B1B4F9280003F0DDFD82466E
:102150005046FEF7C4F800F1010900BF384606F00A
:1021600055FB0646B4F92A10B14201DAB4F92A60E7
:102170003146384605F0B0FF451CA5EB0901204665
:1021800012F0E5FFC0B1B4F9280003F0BDFD8246AE
:102190002A4639465046FEF761F8681E2064B4F9B5
:1021A0002A10206C884206D194F84800012802D1F8
:1021B000206C401E206400BF06E004F1280003F0FC
:1021C0000EFD0020A085206440460DF0FBF906F0CE
:1021D000D9F800BFBDE8F08770B505460E4605B9D1
:1021E00070BD04F093FF284603F08EFD04461CB139
:1021F000666528460DF0E6F906F0C4F800BFEFE783
:1022000070B506460D46FEB104F080FF304603F07F
:102210007BFD0446206BA84200DD256B606BA84265
:1022200000DA656BE06BA8420CD0E563206D10B15D
:102230003046216D884730460DF0C4F905213046FF
:102240000DF043FA06F09EF870BD2DE9F04104460A
:10225000B4F90450284603F057FD804628460DF097
:1022600085FF0746214628460CF02DFA08B9BDE83F
:10227000F08120680B2811D00C2804D00E2811D032
:102280000F2821D105E022464146284613F03DFDA6
:102290001AE02946404613F001FFE8E740460EF0F9
:1022A00000FF11E07FB1A068406800280BDDA06846
:1022B0000668092E00D104E031462846FFF7A0FC4D
:1022C000D5E700BF00BF00BF00BF20460CF080FD77
:1022D00000BFCCE72DE9F04104460D46208D20B328
:1022E000B4F9280003F010FD8046404606F08EFA4F
:1022F000064694F8480008B1012000E00020074697
:10230000002D00DA0025B54200DD3546B4F92A007B
:10231000C01BA84202DAB4F92A00C51B206CA842EF
:1023200000D025640020606400BFBDE8F0812DE985
:10233000F04F8BB00446894615469A464FF0000B85
:1023400094B3204600F034F90646204600F01FF909
:10235000049004F0DBFE204603F0D6FC0A9005A9A9
:102360000A9800F0D5F919F0010F07D0BDF9241033
:10237000701E081AA0EB0508822704E0BDF92000B2
:1023800000EB0508022733463246CDE901A7009449
:1023900040460499FEF78DFD834600215846FEF71E
:1023A00017FE05F0EFFF00BF58460BB0BDE8F08FF9
:1023B0002DE9F04104460D461646072332462946CC
:1023C0002046FFF7B4FF0746054A00213846FEF7CE
:1023D0001FFE044938460DF08FFA3846BDE8F081FB
:1023E000CD210108BD8201082DE9F04104460D46CA
:1023F00016460823324629462046FFF798FF07462F
:10240000054A00213846FEF703FE044938460DF020
:1024100073FA3846BDE8F081FB210108F782010814
:102420002DE9F04786B004460D4616461F46DDE905
:102430000F9ADDF8388000210291CDE9031453464C
:102440004A46CDE9001605954146384600F004F8A5
:1024500006B0BDE8F08700002DE9FF4F89B00746C0
:1024600088469346DDF86CA0DDE9175945F48055A0
:102470004823304AA9B216988DE80F005A464146C3
:1024800038460C9B0CF000FC0646002E4ED004F0A3
:102490003DFE304603F038FC0446302220461999B0
:1024A0000CF05CFB2022244904F12800FDF7D6FE45
:1024B000002004F148046082C4F800A0A4F814903D
:1024C000E082E080E061A4F1480404A9204600F025
:1024D0001FF90023194A41F28271CDE90061CDE96B
:1024E0000223BDF91AE0BDF916C0AEEB0C0C0CF1DD
:1024F0000103BDF918C0BDF914E0ACEB0E0C0CF1F2
:102500000102BDF9161070460CF0BEFBA4F84C0099
:1025100042F20400054202D130460CF0F3FC304692
:102520001A9900F0DEF805F02DFF00BF30460DB01F
:10253000BDE8F08F6D3C01088C030020AD29000838
:102540002DE9F04387B004460D4616461F46DDF8D8
:102550003880B4F90810608A62680023CDE9042845
:10256000CDE90053CDE90201B4F91030B4F90E20E1
:10257000B4F90CC00CEB0701B4F90AC00CEB06006F
:10258000FFF76AFF8146484607B0BDE8F08370B5A3
:102590000446002554B104F0B9FD204603F0B4FB15
:1025A0000646B6F9425005F0EDFE00BF284670BD64
:1025B00070B586B0044600258CB104F0A7FD204616
:1025C00003F0A2FB064601A9304600F0A1F8B6F9D7
:1025D00040500DB9BDF9045005F0D4FE00BF2846A7
:1025E00006B070BD70B5044664B104F08FFD20469E
:1025F00003F08AFB05462946204613F031F805F022
:10260000C1FE00BF70BD70B5044664B104F07EFD2C
:10261000204603F079FB05462946204613F076F85C
:1026200005F0B0FE00BF70BD70B5044684B104F083
:102630006DFD204603F068FB05462946204614F050
:10264000DCF92946204614F0A5F905F09BFE00BFF1
:1026500070BD70B504460D463CB104F057FD2946E7
:10266000204614F0F2FA05F08DFE70BD2DE9F04120
:1026700004460D4604F04AFD9CB1204603F044FB9D
:102680000646304600F0CAF80746B562304600F00C
:1026900054F93946304600F0D1F820460CF092FF4C
:1026A00000BF05F06FFEBDE8F08170B505460E462F
:1026B000B5B104F02BFD284603F026FB044636B1E5
:1026C000B4F85C0040F01000A4F85C0005E0B4F839
:1026D0005C0020F01000A4F85C0005F053FE00BF81
:1026E00070BD70B504460D468CB104F00FFD204658
:1026F00003F00AFB0646294606F1500006F019F9D8
:1027000010B120460CF05EFF05F03CFE00BF70BD2E
:102710002DE9F04F85B005460C460020049003904B
:10272000B5F9426028460DF0FEFB029028460DF0F8
:1027300002FC0190E88C10F0200F02D0B5F94400A3
:102740000390284600F06AF88046B5F84E0020B1A4
:10275000B5F94E000CF0AAFD04900FFA88F0208025
:10276000049800B2608030B2A0800298801B401EA6
:1027700001B221810398304400EB08010498084419
:1027800001B2E1800198801B401E01B2618130B22C
:10279000A0810298801B401E01B2218231B2E181EA
:1027A00006EB0800401E01B26182B5F918902FE0D7
:1027B000484603F0A9FA0746B7F90000B5F900103A
:1027C000A0EB010AB7F90400B5F90010A0EB010B6A
:1027D000B7F90200B5F90210401A00900098B04213
:1027E00014D1B88B10F0800F08D0B4F91000504508
:1027F0000CDBAAF1010001B2218207E0B4F90C0060
:10280000584503DC0BF1010000B2A081B7F91A9022
:10281000B9F1000FCCD105B0BDE8F08F70B504461A
:102820000025E08C10F0200F06D0B4F940501DB9FF
:10283000A06A04F0E6FB851C284670BD2DE9F04F28
:1028400085B0044688462046FFF7E8FF04900498C8
:10285000A0EB0805002D6DD04FF0000B00BF00204D
:102860008246814640F6FF70019040420090B4F9E4
:10287000186037E0304603F047FA0746D7E9000111
:10288000CDE90201B4F902004242B4F9000041422C
:1028900002A805F0F2F8BDF90A10B4F9420081422D
:1028A0001ED1BDF90E00BDF90A10401A401C40456A
:1028B00016D1B88B10F0800F09D0BDF90C1000981C
:1028C00081420DDDB246BDF90800009008E0BDF977
:1028D00008100198814203DAB146BDF90800019061
:1028E000B7F91A60002EC5D1B9F1000F0AD02A46F7
:1028F000294648460CF01CFF0BFB05F10022484618
:102900000CF0D5FEBAF1000F0BD02A4629465046EE
:102910000CF00EFF0BFB05F04142002250460CF07C
:10292000C6FE0BF1010BB9F1000F98D1BAF1000FFF
:1029300095D100BF05B0BDE8F08F30B585B0044635
:10294000B4F84C0010B9B4F84E0068B3694620469C
:10295000FFF7DEFEB4F84C00B8B1BDF90620BDF9B2
:102960000410B4F94C000CF068FEBDF90A50BDF932
:102970000630EB1A5A1CBDF90830BDF904505B1B38
:10298000591CB4F94C000DF0FEF8B4F84E0050B1EB
:10299000BDF90630BDF902505A1BBDF90410B4F957
:1029A0004E000CF04AFE00BF05B030BD2DE9FE43DD
:1029B0000446B4F90470B4F904000CF013FC80462A
:1029C000404603F0A1F90546AE6C2068172858D0A0
:1029D00008DC0E283ED00F280BD014284FD0152825
:1029E00053D14DE01F281AD020282ED022284CD1B8
:1029F00042E06FF07041E86B884204D0E86B07F06A
:102A000025FC03F063FC46B194E807008DE807005D
:102A1000ADF804706846B04700BFBDE8FE83A0680B
:102A200090B1B5F85E0040B1B5F95E00B84204D08F
:102A3000B5F95E000DF00CF804E038460DF060F8D2
:102A4000A5F85E000020A060E7E7214640460BF0B5
:102A50003AFEE2E7A068406800280CDDA068D0F8E4
:102A60000090B9F1090F05D138460DF049F8A5F8E5
:102A70005E00D2E700BF08E0E86BA060CDE700BFD2
:102A800000BF20460CF0A4F9C7E700BF26B1A4F8A8
:102A900004802046B04702E020460CF099F900BFC0
:102AA000BBE7000051B14FF0204252F8202042F025
:102AB00001024FF0204343F820200AE04FF020426B
:102AC00052F82020034B02EA03024FF0204343F860
:102AD00020207047FEFF0F00D0E9011241EA0201F9
:102AE000C26841EA0201026941EA0201426941EA1F
:102AF0000201826941EA0201C26941EA0201026AF5
:102B000041EA0201426A41EA0201826A41EA0201A3
:102B1000C26A41EA0201026B41EA02014FF020431E
:102B2000026843F822108168082908D11A46016812
:102B300052F8211041F04001026843F82210416B25
:102B40000968426B526841EA0211426B926841EA9D
:102B50000221426BD26841EA0241426B126941EAAA
:102B60000251426B526941EA0261426B926941EA49
:102B70000201026802F101024FF0204343F82210E3
:102B8000C16AB1F5804F1BD1816B0968826B5268B5
:102B900041EA0211826B926841EA0221826B12695A
:102BA00041EA0251826B526941EA0261826B926989
:102BB00041EA0201026803EB8202C2F8041108E054
:102BC0006FF070414FF02043026803EB8202C2F8BD
:102BD000041170472DE9F84F0746884614462046F1
:102BE00004EBD471491004FB04110091A8EB040913
:102BF00008EB040A2848006998B127480069B0F931
:102C00000600504503DA24480069B0F906A02248BE
:102C10000069B0F90200484503DD1F480069B0F9BA
:102C200002900026254616E0A8EB060BCB4511DBEB
:102C3000D3450FDC00E06D1E06FB06F005FB050129
:102C400000988142F7DC7A19781B1349896D0B686B
:102C500059469847761CA642E6DB0026254616E034
:102C600008EB060BCB4511DBD3450FDC00E06D1EF6
:102C700006FB06F005FB050100988142F7DC7A1996
:102C8000781B0549896D0B6859469847761CA64202
:102C9000E6DBBDE8F88F00007460002010B5044644
:102CA0000A2C02D103F0B0FC11E00D2C0FD004F07F
:102CB0002DFA074880690168204688470548006862
:102CC00018B1204603490968884705F05BFB10BD31
:102CD00074600020100300202DE9F04387B0044603
:102CE0000E461746D4F80C80002004F0F5FF054688
:102CF000B8F1000F05D098F8041011B145F00201A9
:102D000001E025F00201084604F0E6FF206970B1F9
:102D10000123D4E902018DE80B0003936388228824
:102D200020693946D0F800C03046E0471EE0E06830
:102D300006F03BFB8146B9F1000F06D1E08801287F
:102D400001D0002000E00C488146A188E088A268FC
:102D500001230093CDE90429CDE901300391638873
:102D600022883946304605F033FF00BF284604F07C
:102D7000B3FF07B0BDE8F083746000202DE9FF4F7A
:102D80008FB004460D4600200E9001907B48B0F9AC
:102D9000060006907948B0F90A00059020880B904B
:102DA00060880A901D98002802DA1D98404200E0D1
:102DB0001D9808901D98002804DA12990B98401A63
:102DC000401E00E01298089948434FF47A7190FB36
:102DD000F1F02D1A1C9949421E9A01FB02F04FF4A2
:102DE0007A7105F0B4FC119900EB010B0BF10100B5
:102DF00004901E98002802DA4FF0FF3000E0012016
:102E00000390E06820B1E068007908B101200190EA
:102E10004FF00009AAE05E4609F101011C9A891AE7
:102E20001E9A01FB02F04FF47A7105F090FC1199A3
:102E300000EB010B049886427ED0049600BF0698F2
:102E400086427EDB059886427BDC4FF0FF3A4FF0EE
:102E500000080020079002900C9061E0DDE9070176
:102E6000084407900798B0F57A7F56DB1D98002834
:102E700001DD0C9803E0DDE90B01401A401E0990CA
:102E80004A462046099903F0BAFF87B20E98874256
:102E900002D11AF1010035D177B9019860B10298D9
:102EA00078B305EB08014A1E05EB0A00314605F030
:102EB000AFFF0020029024E0029850B11AF1010007
:102EC00007D005EB08014A1E05EB0A00314605F064
:102ED0009FFFC24601200290206928B12069416805
:102EE000384688470D9004E0E068806850F8270075
:102EF0000D902248806C01680D988847009007F07B
:102F0000EFF90E9700BF08F101080798A0F57A7055
:102F100007900798B0F57A7FF5DA0C98401C0C9072
:102F2000DDE90B10884299DB029830B105EB08010E
:102F30004A1E05EB0A0001E016E002E0314605F00A
:102F400067FF039806441E98002805DA5E4501DDF8
:102F5000012006E0002004E05E4501DA012000E0E7
:102F6000002000287FF46BAF09F101090A98814520
:102F7000FFF651AF13B0BDE8F08F00007460002081
:102F80002DE9F04707468846144640F2C3206043C7
:102F90004FF47A7190FBF1F000F1010904EBD47168
:102FA000491004FB041A26460023224641463846AF
:102FB000FEF728F9012513E005FB05F006FB0600E6
:102FC000504506DD33462A4641463846FEF71AF993
:102FD000761E33462A4641463846FEF713F96D1CE5
:102FE0004D45E9DDBDE8F0872DE9F0470546884607
:102FF000164640F2C32070434FF47A7190FBF1F013
:1030000000F1010906EBD671491006FB061A344699
:10301000AA19A81B2649896D0B68414698470127C4
:1030200041E007FB07F004FB0400504524DD4C455C
:1030300021DD05EB070CACF1010208EB0401A5EB67
:10304000070C0CF10100DFF868C0DCF858C0DCF8B0
:103050000030984705EB070CACF10102A8EB040126
:10306000A5EB070C0CF10100DFF844C0DCF858C0F8
:10307000DCF800309847641E2A1908EB0701281B6A
:10308000DFF82CC0DCF858C0DCF8003098472A196B
:10309000A8EB0701281BDFF818C0DCF858C0DCF8E3
:1030A000003098477F1C4F45BBDDBDE8F08700002E
:1030B0007460002070B504460E4615466119601B09
:1030C00002F01AFD2A4631462046FFF783FD02F042
:1030D0003DFC70BD2DE9F04F87B00646894692460B
:1030E0001F4640F6FF7006904042059000250CE018
:1030F00006EB8500B0F902400698844200DA069497
:103100000598844200DD05946D1C4D45F0DB414877
:103110000069D8B13F480069B0F90600C11B0598A5
:10312000814205DA3B480069B0F90600C01B0590F2
:1031300038480069B0F90200C11B0698814205DDDC
:1031400034480069B0F90200C01B0690069C5BE0A1
:1031500011F0D2FE002550E0A9F10100A84201DDE6
:10316000681C00E00020049006EB8500B0F902B076
:10317000049806EB8000B0F90280A34524D1A04555
:103180000CD1049B36F9233003EB0A02E11936F91E
:10319000253003EB0A000FF039FF2DE023464A46A5
:1031A0002946304611F0B3FC03900398A0420AD0A0
:1031B000A8EB0403CDE900A703990A1B36F9250003
:1031C00021460DF0C1FB17E0A04515D0A04501DB5D
:1031D000A34503DDA3450FDBA0450DDC049806EBFA
:1031E000800306EB850203A920460DF05FFE10B1B7
:1031F00003980DF099FA00BF6D1C4D45ACDBE11949
:10320000504611F027F9641C05988442A0DD07B0F0
:10321000BDE8F08F7460002010B5002004F02FFD91
:103220006FF07F4004F035FD012004F07FFD0020A9
:1032300004F08AFD002004F097FD002004F04CFD0E
:10324000034804F055FD002004F062FD10BD0000AD
:103250003858020808B5012108200AF085FA4FF015
:103260000300ADF800008DF802004FF010008DF85B
:1032700003006946014800F003F808BD000C014056
:103280002DE9F04102464FF0000C65466646604667
:1032900063466446674691F803C00CF00F0C654620
:1032A00091F803C01CF0100F04D091F802C04CEA52
:1032B000050C6546B1F800C01CF0FF0F3FD0D2F8F6
:1032C00000C064464FF0000C604635E04FF0010C42
:1032D0000CFA00FC6346B1F800C00CEA030C664629
:1032E0009E4226D14FEA800C63464FF00F0C0CFA39
:1032F00003FC674624EA070C644605FA03FC4CEA23
:10330000040C644691F803C0BCF1280F06D14FF0BD
:10331000010C0CFA00FCC2F814C00AE091F803C0DA
:10332000BCF1480F05D14FF0010C0CFA00FCC2F8BB
:1033300010C000F1010C60460828C7D31460B1F832
:1033400000C0BCF1FF0F44DDD2F804C064464FF06A
:10335000000C60463AE000F1080C4FF0010808FA52
:103360000CF84346B1F800C00CEA030C66469E42D6
:1033700029D14FEA800C63464FF00F0C0CFA03FC86
:10338000674624EA070C644605FA03FC4CEA040C81
:10339000644691F803C0BCF1280F07D100F1080C76
:1033A0004FF0010808FA0CF8C2F8148091F803C035
:1033B000BCF1480F07D100F1080C4FF0010808FAE2
:1033C0000CF8C2F8108000F1010C60460828C2D346
:1033D0005460BDE8F08102464FF000031846936840
:1033E0000B4203D04FF00103184602E04FF00003F8
:1033F0001846704741617047016170472DE9F04FF1
:103400009DB067A170A001F013FC01F043F900200A
:1034100004F035FC02F05AFF02F090FA032002F0AB
:103420007FFB4FF0000004460AE004EBC40101AA50
:1034300002EB4101084603F0BBFF04F10100044622
:10344000022CF2DB03F09BFD0746DFF890B1CDF8CC
:1034500070B04FF000067EE0404611F0E7F860499A
:103460000090FCF7B2FF1290129801465846FDF703
:1034700051FA1ED01298834603F081FD82461298BD
:1034800003464FF0050257490DF12A0004F074FB82
:103490000AAB554A0AA901A804F070F803F06FFDC1
:1034A000A0EB0A05322D04DAC5F13201084602F01C
:1034B000FCFF404611F006F949490090FCF785FFF2
:1034C0001B901B9801461C98FDF724FA18D01B98F6
:1034D0001C9003F054FD82461B9803464FF00402F3
:1034E00042490DF14E0004F047FB13AB404A13A9CB
:1034F0000DF1160004F042F803F041FDA0EB0A09BB
:10350000142096FBF0F100FB116008BB6FF07F40C8
:1035100004F0BFFB002004F027FC364804F0E8FB71
:103520000A22114634A003F049F9374804F0E0FBC1
:103530000A2003F06BFD0321284603F005F803F091
:1035400063F80A2003F062FD0321484602F0FCFF05
:1035500006F10100064603F012FDA0EB070847F252
:103560003050804504DA00F05DFA00283FF474AF73
:103570004FF47A7000F056FB4FF0000004460AE06A
:1035800004EBC40101AA02EB4101084603F070FFFD
:1035900004F101000446022CF2DB1DB0BDE8F08FFF
:1035A0000A4578616D706C657320666F722074686F
:1035B000650A6175746F6D6F7469766520696E64F4
:1035C00075737472696500004175746F6D6F74690D
:1035D00076652073616D706C65730000000080BFBC
:1035E00035FA8E3CB0C7010805360108C4C701088A
:1035F0007D3601088C5E02086D7365632F70696308
:10360000747572653A0A0000385802082DE9F04FC7
:1036100089B005F0C5FE804605F0C5FE8146C9A10A
:10362000D6A001F005FB4FF47F0004F028FB02F068
:103630004DFE0BF013FD04460BF077FC32221421F3
:10364000D04803F027F9D04804F052FB0A22114673
:10365000CEA003F0B3F801F046FE02F037FE0A22D6
:103660001146D0A003F0AAF832221421D24803F068
:1036700011F94FF47A6000F0D5FA01F00BF84FF031
:10368000000004461BE04FF0000005460DE0CA486C
:10369000408800FB05F2C848008800FB04F1C648DA
:1036A00003F0F8F805F101000546C348408899FB8E
:1036B000F0F0401CA842EADC04F101000446BE48D8
:1036C000008898FBF0F0401CA042DCDC4FF4FA606C
:1036D00000F0A8FA00F0DEFFB8A001F0DFF9022048
:1036E00004F042FBC04804F003FB4FF0C8008346DF
:1036F00047E003F044FC8246AF48CDE905890088E5
:103700000790AD484088089000EBD0704FEA600009
:10371000CDE9000BCDF808B0079800EBD0704FEA68
:103720006000034609EBD9704FEA60000246DDF8FD
:10373000148008EBD8704FEA600001469E4803F001
:10374000DBF808EBD870401001466422A7A0CDF842
:10375000208003F053F803F0AEFA00BF03F00FFC33
:103760000AF10A01884203DA00F05CF90028F5D07A
:1037700003F005FCA0EB0A0000EB40000BEB40005F
:10378000834640F6B830834503DA00F04BF9002851
:10379000AFD04FF4FA6000F045FA00F07BFF02F082
:1037A00095FD8548CDF8208040884844052303EBEB
:1037B0006000024608EBD8704010014692A003F06A
:1037C0001DF84FF00004254680E003F0D8FB824648
:1037D0002046294615F0B2F800228F4BCDE90601AC
:1037E000FCF711FF06460F46DFF8CCC1BCF802C05B
:1037F000CC444FEA6C0C6346DFF8BCC1BCF800C097
:10380000C4444FEA6C0C6246DFF8ACC1BCF802C09D
:10381000A9EB0C0C4FEA6C0C6146DFF89CC1BCF8BC
:1038200000C0A8EB0C0C4FEA6C0C604602F05CFD8B
:1038300030463946FDF709F8CDE9058904905E4820
:10384000008807905C4840884FF47A720890089985
:1038500001EBD17149100498CDE90102009107985C
:1038600000EBD07040100346DDF8189009EBD970DA
:1038700040100246DDF8148008EBD8704010014675
:103880004D4803F039F803F016FA00BF03F077FB58
:103890000AF10A01884203DA00F0C4F80028F5D0E2
:1038A00003F06DFBA0EB0A000390FCF78EFF5B4971
:1038B0000490FCF7C0FD0590FCF7E6FF22462B467E
:1038C000CDE90601FCF7F7FD04460D464FF0C04276
:1038D000534B20462946FCF7EDFF04D200F0A2F836
:1038E00000283FF472AF3448CDE90589008807907D
:1038F000314840884FF47A71089000EBD070401046
:10390000CDE900010291079800EBD070401003460A
:10391000DDF8189009EBD97040100246DDF81480EC
:1039200008EBD87040100146234802F0E5FF01F093
:10393000DAFC0BF093FB04460BF0E4FA09B0BDE8A7
:10394000F08F000053686F77696E670A6469666676
:103950006572656E74206269746D61707320776939
:1039600074680A616E6420776974686F7574206387
:103970006F6D7072657373696F6E00004269746D6C
:1039800061707300FCDA0108F89F0208524C452070
:10399000436F6D70726573736564206269746D61E5
:1039A00070730000312F322F342F38206270702056
:1039B0006269746D6170730044D301084269746D6B
:1039C000617073206D617920616C736F2062650A8C
:1039D0006D61676E696669656420616E6420726FEF
:1039E00074617465640000008CCE02084269746DD5
:1039F0006170732063616E206265206D61676E691E
:103A0000666965642E2E2E002E2E2E616E64207245
:103A10006F74617465642E0000408F4000007A432B
:103A2000FB21294010B503F097FA04460BF08FFAFA
:103A30006E2C01D04E2C03D14FF001000B490870C1
:103A4000732C01D0532C0ED14FF4FA7002F02DFDDF
:103A500000BF0A2002F029FD0BF079FA03F07CFA8E
:103A60000446002CF5D00148007810BD6801002004
:103A70002DE9F04105F094FC044605F094FC054660
:103A800028A130A001F0D4F802F020FC2F4804F067
:103A90002FF96FF07F4004F0FCF8002211462CA0B3
:103AA00002F08CFE27462E4605EBD67252101146C8
:103AB00004EBD77252101046322203F019F901F0CC
:103AC00012FC012004F008F905EBD67252101146E1
:103AD00004EBD772521010463C2203F009F9002083
:103AE00004F0FAF801F0FFFB1BA000F0D7FF02F092
:103AF000EDFB6FF07F4004F0CCF8002211461DA0D2
:103B000002F05CFE05EBD6725210114604EBD77240
:103B1000521010462F2201F027FF01F0E4FBBDE810
:103B2000F08100000A4172626974726172792063E7
:103B30006972636C65730A616E6420617263732ECF
:103B400000000000436972636C657300F888020826
:103B5000436972636C650000436972636C6573202E
:103B6000776974680A416E7469616C696173696E22
:103B700067000000416E7469616C69617365640A75
:103B8000636972636C65000010B54FF00000044675
:103B900017A120A001F04CF84FF47F0004F06FF85B
:103BA00002F094FB0EF07EF84FF4FA6000F03AF861
:103BB00000F070FD02F058FB4FF00000044608E0F2
:103BC000164951F82410084611F0DEFD04F10100F9
:103BD0000446042C03D2FFF725FF0028F0D0002173
:103BE000084602F019FA0E4802F0C0F910BD0000B4
:103BF0000A75432F47554920737570706F7274733F
:103C00000A736F66747761726520637572736F7281
:103C100000000000437572736F7200007001002095
:103C2000844D02082DE9FE4304464FF00000804613
:103C30001F49B1F9001008460AF0F6FF642C0EDDAA
:103C40000E2100221B48B0F902000723CDE9012113
:103C500000903C220A21084609F0F5FB01E04FF0F4
:103C6000000007B222460021384609F077FC03F035
:103C700086F9054600BF03F082F9A0EB0506314640
:103C8000384609F0D8FC0BF062F90A2002F00DFC6E
:103C9000A64203DAFFF7C6FE0028ECD038460BF048
:103CA000CBF813F0BBFB0BF052F94046BDE8FE83A6
:103CB00048010020580100202DE9F04F87B005F0A1
:103CC0006FFB834605F06FFB06904D480590002181
:103CD0004CA000F0ADFFFF2000F0EEFC0490049833
:103CE0000BF098FE04904FF00A0007464FF04B008F
:103CF0008046ABEB0700A0F10A0081460698A0EBD6
:103D00000800A0F10A008246B9F18C0F02DD4FF0E5
:103D10008C008146BAF1780F02DD4FF078008246C0
:103D20003B46022200213DA08DE80007FEF778FB0C
:103D300005464FF001012846FEF78BFC012128467D
:103D4000FEF7B3FC002201212846FEF731FB0122D9
:103D500011462846FEF748FB34492846FEF786FC04
:103D600028460BF06DF9039040F28270002100911B
:103D70000B460A46CDE901102D48039906F000FCD8
:103D8000064630460BF064FE3046059906F092FD7B
:103D900001F0A9FA4FF0000408E0304606F08CFC70
:103DA000FA20FFF73FFF04F1010004460A2C03DA72
:103DB000FFF738FE0028F0D04FF00000044608E07E
:103DC000304606F05BFCFA20FFF72CFF04F10100FF
:103DD00004460A2C03DAFFF725FE0028F0D04FF442
:103DE000FA70FFF71FFF30460BF026F828460BF05D
:103DF00023F804980BF00EFE07B0BDE8F08F00002A
:103E0000F04803084672616D652057696E646F77EC
:103E10002026204C697374626F78000053656C65CE
:103E20006374206C616E67756167650018A802088D
:103E3000A4E201087047000070B505F0B1FA06462B
:103E400000EBD6704FEA6000044605F0ACFA064677
:103E500000EBD6704FEA6000054620A126A000F0D6
:103E6000E7FE6FF07F4003F014FF284803F040FFA7
:103E70000022114626A002F0A1FCA4F13200024665
:103E800005F128030721274802F052FF05F1280316
:103E900004F132020721234802F04AFF4FF47F4029
:103EA00003F0F7FE05F13C03224603211E4802F011
:103EB0003FFF6FF07F4003F0ECFE01F03FFDA5F106
:103EC000280000EB4000034604EB440002460421B6
:103ED000164801F08DFD01F006FA70BD0A537461B9
:103EE0006E6461726420616E6420616E7469616CDD
:103EF0006961736564000000417262697472617285
:103F00007920506F6C79676F6E730000E856030874
:103F10004172626974726172790A506F6C79676F6D
:103F20006E730000AC330208C83302083802002068
:103F30002DE9F04387B005F033FA814600EBD970E4
:103F40004FEA6000054605F02EFA814600EBD97075
:103F50004FEA60000646A14903C9CDE905019F4922
:103F600001F1080103C9CDE903014FF002008046C9
:103F70009BA1A3A000F05CFE02F0A8F96FF07F40C7
:103F800003F087FEA04803F0B3FEA6F12800024626
:103F900029469EA002F032FC02200090DDF814C0F9
:103FA000E1460CEBD97CA5EB6C0C6046DDF80CC04F
:103FB0006346DDF814C06246A6F10F0C614609F0B5
:103FC0002CFAADF80800022000900699894601EB12
:103FD000D971A5EB6101084604990B4606990A467A
:103FE00006F1140109F019FAADF80A00BDF908103C
:103FF00008460AF09AFFBDF90A1008460AF095FF34
:104000004FF47A70FFF70EFEBDF90A1008464FF420
:10401000FA72002109F0A2FA4FF000000746C1E051
:10402000BDF908100846784909F087FABDF908106B
:1040300008464FF47F42002109F066FABDF90810E6
:104040000846FF22012109F05FFA4FF00000044604
:1040500011E0BDF908100846214609F0ECFABDF957
:104060000A100846214609F0E6FA052002F01DFA7A
:1040700004F101000446642C03DCFFF7D3FC0028A4
:10408000E7D0BDF90810084664A109F084FA13E0EE
:10409000BDF908100846214609F0CDFAC4F1C8025E
:1040A0001146BDF90A20104609F0C5FA052002F0B4
:1040B000FCF9A4F101000446002C03DBFFF7B2FC7D
:1040C0000028E5D0BDF90810084657A109F063FAA9
:1040D000BDF908100846002109F09AFA13E0BDF96D
:1040E00008100846214609F0A6FA04F1C802114654
:1040F000BDF90A20104609F09EFA052002F0D5F914
:1041000004F101000446642C03DCFFF78BFC00285B
:10411000E5D013E0BDF908100846214609F08BFAF6
:10412000C4F5C8721146BDF90A20104609F083FA99
:10413000052002F0BAF9A4F101000446002C03DBCB
:10414000FFF770FC0028E5D0BDF9081008463A4991
:1041500009F0F3F9BDF90810084638A109F01BFA77
:1041600013E0BDF908100846214609F064FA04F589
:10417000C8721146BDF90A20104609F05CFA052004
:1041800002F093F904F101000446642C03DCFFF70C
:1041900049FC0028E5D04FF47A70FFF743FD07F1A2
:1041A000010007464745FFF63BAF4FF47A70FFF733
:1041B00039FDBDF9081008460AF03EFEBDF90A10A7
:1041C00008460AF039FE4FF47A70FFF72BFD1F48BE
:1041D00003F08EFD07B0BDE8F0830000D433020881
:1041E0000A50726F67726573736261727320696ED1
:1041F0000A616C6C20766172696174696F6E73001C
:104200005769646765747300F888020850726F67B5
:1042100072657373206261720000000054616E6BFE
:1042200020656D7074790000416E79207465787432
:10423000202E2E2E00000000F0480308416E792049
:10424000666F6E74202E2E2E0000000090970208DC
:104250002DE9FC413AA143A000F0EAFC00F0C8F8C7
:10426000FF200BF0D7FB06464FF0000000900346FE
:10427000404A4FF00E0101903F4802F0A6F8054673
:104280004FF00000044610E03C4901EBC4014968CE
:104290000846FFF7C7FC394911F8341008460121D8
:1042A00003F0E0FC04F1010004460C2CECD34FF4C5
:1042B0007A70FFF7B7FC4FF00000044612E0284682
:1042C0000BF0AFF940B14FF4987128460AF0CCFEDC
:1042D0000746214609F03EFE6420FFF7A3FC04F1E7
:1042E0000A000446642CEADD4FF44870FFF79AFC9C
:1042F00028460BF096F940B11422114628460BF0DF
:10430000C8F94FF4FA70FFF78DFC28460BF089F9D5
:1043100040B114223C2128460BF0BBF94FF4487001
:10432000FFF780FC28460BF07CF910B128460AF014
:1043300083FD00F0AFF930460BF06CFBBDE8FC816B
:104340000A4469616C6F6720626F7865730A636104
:104350006E20656173696C792062652063726561A6
:10436000746564004469616C6F6720626F7865737F
:1043700000000000297F010870DB01088001002097
:1043800010B509A115A000F053FC01F09FFF10F03B
:10439000B7FF0DF08BF900F07DF90DF009FC00F08E
:1043A00079F90DF039F910BD0A4F7074696D697AA9
:1043B00065642064726177696E6720726F757469D5
:1043C0006E6520666F720A64726177696E67206736
:1043D00072617068206461746100000044726177EA
:1043E000696E672061206772617068007047000025
:1043F00010B50349B1F9001008460BF029F810BDBB
:104400004C010020F0B58DB004F0CAFF064600EB69
:10441000D6704FEA600005464FF034024D496846B9
:10442000FBF71CFF02F0B0FD064631466846FBF77D
:1044300048FF4FF47F0003F022FC474803F029FCBB
:1044400001F044FF454803F053FC0F2004460246A8
:10445000294643A002F0D2F96FF07F4003F019FC27
:10446000414803F045FC04F11E000446024629467B
:104470003EA002F0C3F9384803F00BFC494803F0B2
:1044800037FC04F1280004460246294646A002F003
:10449000B5F94E4803F02CFC04F11900044602461D
:1044A00029464BA002F0AAF9514803F021FC6FF015
:1044B0007F4003F0EEFB04F1150004460246294656
:1044C000684602F09BF94B4803F012FCFF2003F012
:1044D000E0FB04F068FF2838074604F061FF064659
:1044E00000EBD670401001463A4643A002F086F930
:1044F00004F056FF45490988401A064600EBD6707D
:10450000401001469622414802F0C4F96FF07F4006
:1045100003F0BFFB2D4803F0EBFBD22200213CA0AF
:1045200002F04CF9012002F02DF8DC2200213BA022
:1045300002F044F942F2107002F024F8E622002161
:104540003BA002F03BF941F28830FFF76BFB0DB066
:10455000F0BD0000D4E20108FF80800004250308BC
:10456000B5432F4755490000CCB90208556E69760E
:10457000657273616C206772617068696320736F24
:104580006674776172650A666F7220656D62656434
:10459000646564206170706C69636174696F6E73C7
:1045A0000000000028D90208416E792043505520B0
:1045B0002D20416E79204C4344202D20416E7920DE
:1045C0004170706C69636174696F6E009097020846
:1045D000436F6D70696C6564204A616E20323020D3
:1045E000323031372031353A30383A353200000038
:1045F00050C30208F04803087777772E506F77652D
:10460000724D43552E636F6D000000001C4D020873
:104610004755495F4F533A20000000004755495F16
:10462000414C4C4F435F53495A453A20000000002B
:10463000436F6D70696C65723A5265616C5669655D
:10464000774D444B20332E343000000010B503A1C9
:104650000BA000F0EDFA12F09DFC10BD0A53616D45
:10466000706C6573207573656420696E0A4E61769F
:1046700069676174696F6E2073797374656D730017
:104680004E617669676174696F6E207379737465C2
:104690006D00000010B54FF000000549087012F0E1
:1046A000BDFE0448006800F101000249086010BD29
:1046B000680100206401002070B505464FF0FF003E
:1046C00001F077FE08B12C4601E04FF000042046CF
:1046D00003F0D5FA204670BD2DE9FC5F4FF00D00C8
:1046E000834604F060FE82464FF046000446AAEB83
:1046F0000400BAF5A07F02DA4FF0000101E04FF0AC
:104700003C01A0EB010090FBFBF54FF03C084FF0A3
:10471000000004F0BBFD0190012004F0B7FD8146CC
:10472000A9EB08008146B449B4A000F081FA6FF00B
:104730007F4003F0AEFA002003F0A1FA01F0C6FDBD
:10474000B14803F0D5FAB1A001F094FFB24803F0EC
:10475000CFFAB2A001F08EFF42F21D3001F012FF3D
:10476000B3A001F087FF102001F00CFFB1A001F011
:1047700081FFB2A001F07EFF019801F003FFB0A01D
:1047800001F078FFB1A001F075FF40F2352001F093
:10479000F9FEB24803F0ACFA6FF07F4003F079FA0B
:1047A000601902460021AEA002F008F8032000FBC9
:1047B00005420021ABA002F001F8052000FB0542F4
:1047C0000021AAA001F0FAFF062000FB054200210B
:1047D000A8A001F0F3FF082000FB05420021A7A0DC
:1047E00001F0ECFF0A2000FB05420021A5A001F02A
:1047F000E5FF0C2000FB05420021A4A001F0DEFF34
:104800004FF00007EDE0C7EB0720B0FBF9F080B2F6
:10481000064608EB070080B20090304603F039FAF4
:104820006019401E02462146009802F007FAC6F1C0
:10483000FF0101EB0121FF2202EB0121084603F0F9
:1048400028FA022000FB0540401E0246601901467E
:10485000009802F0F3F93102084603F01AFA032037
:1048600000FB0540401E0246022000FB0541009867
:1048700002F0E4F9C6F1FF0101EB014101F57F41CE
:10488000084603F006FA042000FB0540401E0246DD
:10489000032000FB0541009802F0D0F931040846DE
:1048A00003F0F7F9052000FB0540401E02460420F6
:1048B00000FB0541009802F0C1F9C6F1FF0101EBD0
:1048C000012101F57F01084603F0E3F9062000FB12
:1048D0000540401E0246052000FB0541009802F0FD
:1048E000ADF906EB062101EB0641084603F0D1F9CC
:1048F000072000FB0540401E0246062000FB054144
:10490000009802F09BF906EB0621084603F0C1F976
:10491000082000FB0540401E0246072000FB054121
:10492000009802F08BF9C6F1FF014FF6FF7202EB1F
:104930000141084603F0ADF9092000FB0540401E87
:104940000246082000FB0541009802F077F906EBCB
:1049500006210902084603F09CF90A2000FB0540E5
:10496000401E0246092000FB0541009802F066F94E
:10497000C6F1FF01474A1144084603F08AF90B20AB
:1049800000FB0540401E02460A2000FB054100983E
:1049900002F054F906EB0641084603F07AF90C20C0
:1049A00000FB0540401E02460B2000FB054100981D
:1049B00002F044F9C6F1FF014FF0FF1202EB0121B2
:1049C000084603F066F90D2000FB0540401E024634
:1049D0000C2000FB0541009802F030F907F10100BE
:1049E00007464F4504DAFFF71DF800283FF40BAFE8
:1049F00000F079FCBDE8FC9F10DB0108436F6C6F91
:104A00007220626172000000F8880208436F6C6FC8
:104A10007220626172730A00A86402080A4C43445F
:104A20005F434F4E54524F4C4C45523A20000000C9
:104A30000A00000020627070000000002C200000BE
:104A400020636F6C6F72730A00000000466978651E
:104A5000642070616C657474653A2000BC6B020858
:104A600052656400477265656E000000426C7565B2
:104A700000000000477265790000000059656C6C09
:104A80006F7700004379616E000000004D6167653B
:104A90006E74610000FFFF007047000010B504460F
:104AA0000248046012F0C4FC10BD00006C0100203C
:104AB00010B511A120A000F0BBF812F02BFA0D22C6
:104AC000224923A012F0BAF910222B492BA012F090
:104AD000B5F92F4A2FA13CA012F0F2F93F4A40A1AC
:104AE00048A012F0EDF94C4A4CA14FA012F0E8F9A1
:104AF000FFF7D0FD10BD000075432F4755492073C7
:104B00007570706F72747320554E49434F44450A57
:104B100028616C6C206368617261637465727329CB
:104B2000616E640A5368696674204A495320284AB2
:104B30006170616E29000000496E7465726E617467
:104B4000696F6E616C20666F6E747300F89F020867
:104B500041534349492063686172616374657273AC
:104B60000A26204575726F7065616E0A65787465F6
:104B70006E73696F6E730000C8F302084869726152
:104B800067616E6120260A4B6174616B616E610022
:104B9000E0010020466F6E74436F6E766572746537
:104BA0007220617661696C61626C6520746F20634C
:104BB000726561746520796F7572206F776E2066FB
:104BC0006F6E74732E2E2E0050726F706F72746938
:104BD0006F6E616C0A466F6E74730000FC010020FA
:104BE000466F6E74732077697468206669786564AF
:104BF00020636861726163746572207769647468A8
:104C00002E2E2E004D6F6E6F7370616365640A46C1
:104C10006F6E747300000000180200200A2B2D2014
:104C2000302E3132333400004469676974730000F8
:104C30002DE9F04198B004460D46684602F0FCFFAD
:104C40002F4804602F48056003F03EF8FFF7D0FBC3
:104C50004FF47F0003F013F86FF07F4003F019F872
:104C600001F034FB284803F043F804F09CFB0321D7
:104C700090FBF1F00A38074604F092FB064600EB81
:104C8000D670401001463A46204601F0B7FD1D4857
:104C90000068B0B11D4803F02BF804F084FB064611
:104CA00000EBD67040100A38804604F079FB0746C6
:104CB00000EBD7704010014642461248006801F0F0
:104CC0009DFD1049096811B14FF4FA6101E04FF4FC
:104CD0007A610846FEF7A6FF12F0AAFB12F09EFBCF
:104CE000684602F03FFF0AF032F9FFF7D3FCFF20DD
:104CF00002F0C5FF01F0EAFA18B0BDE8F08100004B
:104D00005C0100206C010020E8560308A86402083A
:104D10002DE9F0418AB042A14DA0FFF789FFFFF7CE
:104D2000B9FC4FF47F4002F0AAFF01F0CFFA06A8C9
:104D300002F0D8F8FF2001F03CFB10B14FF0FF006B
:104D400001E04FF000000746384602F098FF01F0FE
:104D5000BDFA02F014F906464FF0000435E04FF0BA
:104D6000320095FBF0F000F15A00089002F04EFA84
:104D70008046404602F090FA4FF00000099008A8E3
:104D80000DF034F906A9404602F06EFA404602F0F2
:104D90005DFADDE90601CDE9020124B104AA06A904
:104DA00006A802F025FEDDE90201CDE904014FF07D
:104DB000010009904FF0000308AA2949009006A8B5
:104DC00002F058FB04F10100044602F0D8F8A0EB11
:104DD0000605B5F5FA5F04DAFEF724FE08B90120EE
:104DE00000E000200028BAD11E4802F081FF6FF0D9
:104DF0007F4002F04EFFC8220A211BA001F0DEFC1A
:104E000024B195FBF4F0804601F0BCFB4FF47A70BE
:104E1000FEF708FF01F05AFA0AB0BDE8F081000081
:104E2000466F7220666C69636B6572206672656599
:104E300020616E696D6174696F6E0A616E64206FC6
:104E40007468657220707572706F7365730000000E
:104E50004D656D6F727920646576696365730000D6
:104E6000ED1F0108C48103086D732F5570646174D0
:104E7000653A20002DE9F04786B002F080F8074639
:104E80004FF00000044604F08BFA054604F08BFA5C
:104E900006464FF0000080466BA177A0FFF7C8FEE2
:104EA0004FF0000004460BE0764951F82410084604
:104EB00001F063FA02A921F8140004F1010004468C
:104EC000082CF1DB4FF0000004467CE004F0070101
:104ED00002AA32F81110084602F0E6FEFBF7ACF920
:104EE00090FBF5F105FB1100A94605EBD971A0EB8C
:104EF000610000B2ADF80000FBF79EF990FBF6F1FF
:104F000006FB1100B14606EBD971A0EB610000B2BF
:104F1000ADF80200FBF790F990FBF5F105FB1100ED
:104F2000BDF80010084400B2ADF80400FBF784F9A6
:104F300090FBF6F106FB1100BDF80210084400B228
:104F4000ADF80600BDF906C06346BDF904C062466F
:104F5000BDF902C06146BDF900C0604601F00CFF1A
:104F6000BDF90400A84204DBA5F1010000B2ADF8D0
:104F70000400BDF90600B04204DBA6F1010000B256
:104F8000ADF80600BDF90000002803DA4FF000007C
:104F9000ADF80000BDF90600002803DA4FF000006C
:104FA000ADF80600BDF90400BDF90010A0EB01004A
:104FB000BDF90610BDF90220A1EB020100FB01883A
:104FC00004F10100044601F0DAFF07F5FA51081A6E
:104FD000002804DDFEF726FD00283FF477AF01F03E
:104FE000CEFFA0EB07004FF0640190FBF1F0074605
:104FF00001F06CF9FFF74EFB234802F079FE6FF0E9
:105000007F4002F046FE04F0CEF9824601F09AFF9E
:10501000AAEB0000814600EBD970401002460A213D
:105020001AA001F0CBFB17B907F10100074698FB66
:10503000F7F000EB80004000814601F0A3FA00F099
:1050400052F906B0BDE8F0874D756C7469206C614B
:1050500079657220636C697070696E670A48696768
:10506000686C79206F7074696D697A656420647208
:10507000697665727300000048696768207370651F
:1050800065640000E4330208C48103085069786550
:105090006C732F7365633A20000000002DE9F04720
:1050A00086B004F07DF9054604F07DF98146284676
:1050B00005EBD0714FEA61010F46484609EBD0710C
:1050C0004FEA61018846FFF7E5FAFFF791F900BF63
:1050D0004FF00000ADF810004FF03200ADF81200B4
:1050E00028B2ADF814004FF05A00ADF816004FF496
:1050F0007F0002F0C4FD01F0E9F8681E4D490988FF
:10510000401A824600EBDA70401001460F224948EF
:1051100001F0C0FB484802F0EBFD0E2204A947A0B5
:1051200001F086FB02200321A8F11E02CDE9001048
:105130001146A7F13202104632236422FBF7A3FE88
:10514000ADF8080002200121CDE90010A7F15A01B5
:1051500008461E23502208F11E01FBF794FEADF80D
:105160000A00022000901E23502208F11E01019027
:1051700007F10A00FBF787FEADF80C00BDF9081037
:10518000084635A1FBF76DFFBDF908100846FF2260
:105190000021FBF703FFBDF90A10084631A1FBF718
:1051A00060FFBDF90C10084631A1FBF75AFFBDF9AD
:1051B000081008463349FBF719FF00F09CF8044635
:1051C0006CB94FF001000446BDF90A1008464FF4CF
:1051D0008071FBF73EFF4FF4FA70FEF723FD4FF0AE
:1051E0000000064608E002A931F91610084609F049
:1051F00023FE06F101000646032EF4D3012C04D051
:10520000022C09D0032C0AD103E00EF025FC044641
:1052100005E00EF0DFFA02E011F0ECFF00BF00BF86
:1052200024B16E2C02D04E2C7FF452AF06B0BDE8F4
:10523000F08700001C4D0208B0FE0208B5432F475E
:10524000554920546F7563682073637265656E20DD
:1052500064656D6F0000000043616C696272617487
:10526000650000004B6579626F61726400000000A8
:10527000546573742063616C6962726174696F6EE6
:1052800000000000E856030810B5FFF703FA0020FD
:1052900002F0F5FC01F01AF804200AF0A9FB09F06D
:1052A000DDFE044609F041FEFFF7A2F80CF058FCC1
:1052B0000BF078FF0BF0C0FF0CF0BCF80BF058FFC0
:1052C0000CF0DCF80BF038FF0CF044F90CF064F84B
:1052D0000CF028F80CF04EFA0CF058FB0CF0E6FB42
:1052E0000BF0DCFF10BD10B54FF47A60FEF79AFCAE
:1052F000FFF7D0F910BD2DE9F8434FF00000054647
:1053000001F03DFE00F57A60064604F04CF82838BE
:10531000804604F045F84638814602200523502295
:1053200041460090484608F078F8074604E001F04E
:1053300013FE050000D00DE001F021FEA6EB0004F5
:10534000002C04DDFEF76EFB08B9012000E0002010
:105350000028ECD100BF384609F06EFD09F0F7FDDA
:105360002846BDE8F88300002DE9F04798B000F02A
:105370007BFF00F0ABFF04200AF03AFB4FF01E0069
:10538000704908604FF014006F49086004F00BF892
:105390003C38814604F004F8503882463C205021C5
:1053A00053460A22CDE900910290002167A0FDF743
:1053B00037F868494880B1F90210084609F064FEE0
:1053C0008146002064490A220346CDE90092CDE9D6
:1053D00002100246014609F057FC604948800E2140
:1053E00053225E48B0F90200CDE9012100905648F1
:1053F00003685448142102680420FBF75AFD5849F9
:1054000008800E224E215548B0F902008DE80700B1
:105410004D4803684B48142102682820FBF749FDDA
:105420004F494880B1F9001008464EA1FBF719FE1C
:105430004B49B1F9021008464CA1FBF712FE11F0DE
:10544000EDFF09F084FDFEF7DDFF03F0A9FF8146C3
:1054500000EBD9704FEA600005464FF04100064668
:1054600003F09EFFA0EB050007464FF000008046CA
:105470003B464FF0080201463EA0CDE9008502966A
:10548000FCF7CEFF33490880B1F90010084609F057
:10549000FBFD814600200A22CDE901200346024699
:1054A0000146CDF80090039009F0EEFB2B490880EF
:1054B00009F04DFD4FF00000314908601CE06846DE
:1054C00002F0BAFB4FF000002E49086011F0A6FF71
:1054D0002D492B4A126851F82210084680474FF098
:1054E00000002A490870684602F03CFB2448006826
:1054F00000F101002249086023482149096850F859
:1055000021000028DBD1044608E0124931F91410CB
:10551000084609F091FC04F101000446022CF4D382
:105520004FF00000044608E00C4931F91410084619
:1055300009F082FC04F101000446022CF4D318B0F7
:10554000BDE8F0875001002054010020436F6E74C5
:10555000726F6C004C0100201D8101085801002071
:105560004801002053746F70000000004E6578748D
:1055700000000000B5432F4755492044656D6F007A
:105580006001002064010020F80000206801002074
:105590002DE9F04F8BB005465C48B0F922000A9027
:1055A0005A48B0F924A080698469B4F80C80454554
:1055B00009DBE089A84206DBD4F80090A5EB0806D9
:1055C0004FF0FF371DE0A068D4F80490A8B1B0F800
:1055D000008045450DDB4188A9420ADB0288AA1AF2
:1055E00095B2416801EB8501B1F90060B1F9027033
:1055F00006E04FF0FF36374602E04FF0FF36374601
:1056000000BF701C77D041488069007DA17C484371
:105610000990207C08903D488069007D07903B48B8
:10562000B0F92AB0584604F09BFEC0B20690374B42
:10563000099806FB0092A17C0120CDE90423CDE965
:10564000020118468069C37D30488069827DCDE9BA
:1056500000235146DDE907320A9803F0B9FA781CB5
:105660001BD04BF0020004F07BFE284B099807FB8F
:105670000092A17C0120CDE90423CDE90201184666
:105680008069C37D21488069827DCDE90023514630
:10569000DDE907320A9803F09BFA1C488069407DD7
:1056A0001A498969097D884221DDBBF1020F1ED0AC
:1056B0008BF0040004F054FE14488069007DDFF88C
:1056C0004CC0DCF818C09CF815C000FB0CA10F48BA
:1056D0008069407D00EB0A030C48806990F816E071
:1056E000DDF820C00A980CFB0E0203F089FD069835
:1056F00004F036FE00BF0548408C617C084400B2CF
:10570000024948840BB0BDE8F08F000074600020AF
:10571000014603488069826900BF507C70470000E1
:105720007460002000BF02220A80704730B5044632
:10573000A2699589A94204DBD089884201DB012056
:1057400030BD93683BB11888884204DC5888884291
:1057500001DB0120F4E700BF0020F1E72DE9F04F65
:1057600087B005464348B0F92A80014689698869AF
:10577000294600F081F80646002E77D03188691A54
:10578000706800EBC104A778404604F0E9FD06907C
:10579000384B01206268CDE90372059302901846E8
:1057A0008069C37D33488069827DDFF8C8C0CDE958
:1057B0000023DCF818C09CF814302278DFF8B4C05D
:1057C000BCF92410BCF9220003F002FA29488069D0
:1057D000407D28498969097D884237DD25488069EF
:1057E00090F8179023488069407D00FB09FA214812
:1057F0008069007D00FB09FBB8F1020F25D001F0A4
:105800007AFB059001F050FB049002F042FADFF8B9
:1058100064C0BCF922C094F800E00CEB0E02DFF883
:1058200054C0BCF924C00CEB0A03DFF848C0BCF933
:1058300024C00CEB0B01DFF83CC0BCF9220003F0E4
:10584000DFFC059802F025FA00BF00BF069804F0BF
:1058500087FD0848B0F922006178064A9269927D76
:1058600001FB020000B20349488400BF07B0BDE855
:10587000F08F00007460002007E002888A4203DC99
:1058800042888A4200DB02E080680028F5D100BF30
:105890007047000070B50446094989698869214646
:1058A000FFF7EAFF05464DB12988611A686810F8CC
:1058B000310003498969897D484370BD0020FCE7B8
:1058C0007460002000BF01220A80704770B5044652
:1058D0000D462946A069FFF7CFFF06460EB101200D
:1058E00000E00020C0B270BD10B5002414E004EB4D
:1058F000C40101EB04110A4A02EB8101081D602278
:105900000849FAF7ABFC002004EBC40101EB0411D9
:10591000034A42F82100641C042CE8DB10BD00009F
:10592000146100207460002010B54FF0FF30024970
:10593000086002F059FD10BD180400200120024942
:1059400081F85D00704700007460002010B50EF013
:10595000A7FD0348006803498865081D086110BD5C
:10596000BC020020746000207CB505460E4614463B
:1059700001F0CCFB0AF0A4FA05440AF0ADFA0644A3
:105980001A4890F85D0058B9184890F85C004543F3
:10599000164890F85C004643144890F85C00444375
:1059A000281B00F057F8ADF80000281900F052F855
:1059B000ADF80400301B00F04DF8ADF802003019CE
:1059C00000F048F8ADF8060068460AF0BDFA48B1A4
:1059D00000BF224631462846FDF76CFB0AF02EFA3E
:1059E0000028F6D102F0CEFC7CBD000074600020DF
:1059F0002DE9F04106460F4614461D4601F086FB90
:105A00000AF05EFA04440AF067FA054400200AF03E
:105A10009BFAC0B100BF0E48806C406B48B10C4887
:105A2000806C2B4622463946D0F834C03046E047D9
:105A300005E02B462246394630460EF0E5F90AF0DD
:105A4000FDF90028E7D102F09DFCBDE8F0810000DF
:105A5000746000200146064890F85C0028B10448B4
:105A600090F85C0091FBF0F000E0084600B270474F
:105A70007460002070B504460D460026002C00DA44
:105A80000024281BB0F5A07F01DB04F23F15A542DE
:105A900001DA254601260F48826D0F4806CA06C066
:105AA0000C48806D0D4908600D480B490860084698
:105AB000084988650B480C4908600C4804600C488C
:105AC00005600BF04FFAFBF753FB0A4801490861E8
:105AD000304670BD74600020B4020020BC0200207B
