:020000040800F2
:10000000380400204501000821130008D504000829
:100010001D1300088D010008B5180008000000003D
:10002000000000000000000000000000A114000813
:100030009101000800000000231300082D1600089D
:100040005F0100085F0100085F0100085F01000810
:100050005F0100085F0100085F0100085F01000800
:100060005F0100085F0100085F0100085F010008F0
:100070005F0100085F0100085F0100085F010008E0
:100080005F0100085F0100085F0100085F010008D0
:100090005F0100085F0100085F0100085F010008C0
:1000A0005F0100085F0100085F0100085F010008B0
:1000B0005F0100085F0100085F0100085F010008A0
:1000C0005F0100085F0100085F0100085F01000890
:1000D0005F0100085F0100085F0100085F01000880
:1000E0005F0100085F0100085F0100085F01000870
:1000F0005F0100085F0100085F0100085F01000860
:100100005F0100085F0100085F0100085F0100084F
:100110005F0100085F0100085F0100085F0100083F
:100120005F0100085F0100085F0100085F0100082F
:10013000DFF80CD000F018F80048004771190008EB
:10014000380400200648804706480047FEE7FEE7DF
:10015000FEE7FEE7FEE7FEE7FEE7FEE7FEE7FEE777
:100160005D16000831010008064C074D06E0E06806
:1001700040F0010394E8070098471034AC42F6D3EE
:10018000FFF7DAFFB8190008D819000800BFFEE72A
:100190007047000051B14FF0204252F8202042F049
:1001A00001024FF0204343F820200AE04FF02042A4
:1001B00052F82020034B02EA03024FF0204343F899
:1001C00020207047FEFF0F00D0E9011241EA020132
:1001D000C26841EA0201026941EA0201426941EA58
:1001E0000201826941EA0201C26941EA0201026A2E
:1001F00041EA0201426A41EA0201826A41EA0201DD
:10020000C26A41EA0201026B41EA02014FF0204357
:10021000026843F822108168082908D11A4601684B
:1002200052F8211041F04001026843F82210416B5E
:100230000968426B526841EA0211426B926841EAD6
:100240000221426BD26841EA0241426B126941EAE3
:100250000251426B526941EA0261426B926941EA82
:100260000201026802F101024FF0204343F822101C
:10027000C16AB1F5804F1BD1816B0968826B5268EE
:1002800041EA0211826B926841EA0221826B126993
:1002900041EA0251826B526941EA0261826B9269C2
:1002A00041EA0201026803EB8202C2F8041108E08D
:1002B0006FF070414FF02043026803EB8202C2F8F6
:1002C000041170472DE9F04102464FF0000C6546DD
:1002D0006646604663466446674691F803C00CF084
:1002E0000F0C654691F803C01CF0100F04D091F874
:1002F00002C04CEA050C6546B1F800C01CF0FF0FC7
:100300003FD0D2F800C064464FF0000C604635E0A4
:100310004FF0010C0CFA00FC6346B1F800C00CEA87
:10032000030C66469E4226D14FEA800C63464FF08E
:100330000F0C0CFA03FC674624EA070C644605FA26
:1003400003FC4CEA040C644691F803C0BCF1280F8E
:1003500006D14FF0010C0CFA00FCC2F814C00AE000
:1003600091F803C0BCF1480F05D14FF0010C0CFA15
:1003700000FCC2F810C000F1010C60460828C7D389
:100380001460B1F800C0BCF1FF0F44DDD2F804C026
:1003900064464FF0000C60463AE000F1080C4FF064
:1003A000010808FA0CF84346B1F800C00CEA030C47
:1003B00066469E4229D14FEA800C63464FF00F0CEF
:1003C0000CFA03FC674624EA070C644605FA03FCB2
:1003D0004CEA040C644691F803C0BCF1280F07D125
:1003E00000F1080C4FF0010808FA0CF8C2F814806C
:1003F00091F803C0BCF1480F07D100F1080C4FF091
:10040000010808FA0CF8C2F8108000F1010C6046EF
:100410000828C2D35460BDE8F0810000F0B50A4658
:100420004FF00006334634463146354600F000466C
:10043000B6F1004F03D1264EF669314602E0244E54
:1004400076683146C0F30346354686B2334600F43B
:100450004016B6F5401F09D121F0706631461C4E9A
:10046000766826F070661A4F7E601CE000F48016F5
:10047000B6F5801F0BD14FF0030606FA05F6344699
:1004800021EA0406314641F0706631460BE04FEA3E
:1004900050564FEA061603FA06F621EA06063146DA
:1004A00041F07066314642B14FEA50564FEA0616A7
:1004B00003FA06F646EA0106314600F00046B6F1B8
:1004C000004F02D1024EF16101E0014E7160F0BDBA
:1004D0000000014000BFFEE710B50446642C09DCB3
:1004E00004EB84004FEA40000349088000F006F85E
:1004F000012010BD0020FCE70200002000B589B0FB
:100500000121092000F032FF0121022000F01CFF30
:100510004FF02000ADF820004FF018008DF82300B8
:100520004FF003008DF8220008A92348FFF7CAFE08
:1005300001212248FFF772FF214800682149B0FBE2
:10054000F1F0A0F10100204908804FF00000ADF863
:100550000A00ADF806008DF80C0008460088ADF8DA
:10056000040040F2E730ADF8080001A9174801F097
:1005700043F94FF06000ADF810004FF00100ADF806
:10058000120013480088ADF816004FF00000ADF8D7
:10059000180004A90D4801F0ADF808210B4801F03E
:1005A00019F90121094801F08BF80121074801F0F0
:1005B00094F809B000BD0000000C014000081A00CA
:1005C0002000002040420F000000002000040040F6
:1005D0000200002070B504464FF0000005460146B9
:1005E000084600F067FE00BF4FF022004FF0C04108
:1005F000088000BF4FF00000054604E00448048076
:1006000005F101000546B5F5963FF7D370BD000032
:100610000000026010B500F003F800F044F810BDCF
:1006200008B50121080200F07DFE0121612000F0E3
:100630009DFE4FF68070ADF800004FF003008DF87E
:1006400002004FF018008DF8030069460948FFF7D3
:1006500039FE4CF6B370ADF800004FF003008DF892
:1006600002004FF018008DF8030069460248FFF7BA
:1006700029FE08BD001801400014014001460BE0AE
:100680004FF00002104603E000F1010292B2104662
:1006900042F210729042F7DB0A00A1F101039BB213
:1006A0001946EDD1704700B597B04FF01E0001908C
:1006B0004FF0000002904FF01E0003904FF000003A
:1006C0000490059006900790089009900A904FF0CA
:1006D00010000B904FF000000C900E900F901090B7
:1006E0004FF4805011904FF0000012900D90139035
:1006F000149001A8159008A8FFF766FD4FF00200BE
:1007000001904FF0000002904FF0020003904FF074
:100710000000049005900690079001A8169008A884
:10072000FFF752FD01210020FFF734FD17B000BD97
:1007300010B5FFF76FFF0520FFF7A0FF4FF0000097
:100740004FF0C0410880FF490988FF4801800088B8
:10075000A0F51341253905D0FB480088A0F51341C9
:1007600028397DD11021E72000F0D0FD01210020A3
:1007700000F0CCFD4FF48071012000F0C7FD4FF474
:10078000E061022000F0C2FD41F23001032000F0E0
:10079000BDFD0021042000F0B9FD40F20721082032
:1007A00000F0B4FD0021092000F0B0FD00210A2076
:1007B00000F0ACFD01210C2000F0A8FD00210D206F
:1007C00000F0A4FD00210F2000F0A0FD002110206A
:1007D00000F09CFD0721112000F098FD002112205F
:1007E00000F094FD0021132000F090FD0520FFF79C
:1007F00045FF41F29051102000F088FD40F2272182
:10080000112000F083FD0520FFF738FF9C21122006
:1008100000F07CFD0520FFF731FF4FF4C851132095
:1008200000F074FD2321292000F070FD0E212B2003
:1008300000F06CFD0520FFF721FF0021202000F0D3
:1008400065FD0021212000F061FD0520FFF716FF66
:100850000721302000F05AFD40F20771312000E0FE
:1008600085E000F053FD0621322000F04FFD40F2FC
:100870000471352000F04AFD41F60471362000F085
:1008800045FD0421372000F041FD0021382000F013
:100890003DFD40F20671392000F038FD40F2017153
:1008A0003C2000F033FD0F213D2000F02FFD0520FE
:1008B000FFF7E4FE0021502000F028FDEF21512039
:1008C00000F024FD0021522000F020FD40F23F11F5
:1008D000532000F01BFD4FF42741602000F016FD6F
:1008E0000121612000F012FD00216A2000F00EFDC0
:1008F0000021802000F00AFD0021812000F006FD8B
:100900000021822000F002FD0021832000F0FEFC87
:100910000021842000F0FAFC0021852000F0F6FC84
:100920001021902000F0F2FC0021922000F0EEFC5B
:100930000321932000F0EAFC4FF48871952000F029
:10094000E5FC0021972000F0E1FC0021982000F058
:10095000DDFC40F23311072000F0D8FC00212020FC
:1009600000F0D4FC0021212000F0D0FC49E27648C0
:100970000088A0F51341203904D073480088B0F5F1
:10098000134F7ED10021084600F0C0FC4FF4807167
:10099000012000F0BBFC4FF4E061022000F0B6FC47
:1009A00041F21801032000F0B1FC0021042000F006
:1009B000ADFC40F20221082000F0A8FC0021092033
:1009C00000F0A4FC00210A2000F0A0FC01210C2072
:1009D00000F09CFC00210D2000F098FC00210F206D
:1009E00000F094FC0A20FFF749FE40F201110720B5
:1009F00000F08CFC0A20FFF741FE4FF486511020D6
:100A000000F084FC0721112000F080FC4FF4887175
:100A1000122000F07BFC4FF43061132000F076FCD4
:100A20000021292000F072FC44F210012B2000F07C
:100A30006DFC0021502000F069FCEF21512000F0F6
:100A400065FC0021522000F061FC40F23F11532070
:100A500000F05CFC4FF41C51602000F057FC0121B9
:100A6000612000F053FC00216A2000F04FFC0021BF
:100A7000802000F04BFC0021812000F047FC002189
:100A800000E02DE0822000F041FC0021832000F0F6
:100A90003DFC0021842000F039FC0021852000F07D
:100AA00035FC1021902000F031FC0021922000F054
:100AB0002DFC0121932000F029FC4FF48871952032
:100AC00000F024FC0021972000F020FC0021982059
:100AD00000F01CFC40F27311072000F017FCE4E367
:100AE00019480088A0F5134131397ED141F2140133
:100AF000E72000F00BFC4FF48071012000F006FCB1
:100B00004FF40071022000F001FC41F2300103209B
:100B100000F0FCFB40F20221082000F0F7FB00216E
:100B2000092000F0F3FB00210A2000F0EFFB002178
:100B30000C2000F0EBFB00210D2000F0E7FB002172
:100B40000F2003E0000002600400002000F0DEFB44
:100B50000021102000F0DAFB0721112000F0D6FB65
:100B60000021122000F0D2FB0021132000F0CEFB68
:100B70001420FFF783FD41F29061102000F0C6FBC6
:100B800040F22721112000F0C1FB0520FFF776FD80
:100B90000C21122000F0BAFB0520FFF76FFD4FF487
:100BA0000061132000F0B2FB1121292000F0AEFB00
:100BB0000B212B2000F0AAFB0520FFF75FFD002191
:100BC000202000F0A3FB0021212000F09FFB00214A
:100BD000302000F09BFB4FF48371312000F096FB36
:100BE0000021322000F092FB00E078E04FF4017128
:100BF000352000F08BFB41F20A61362000F086FBC5
:100C000040F20771372000F081FB4FF483713820E8
:100C100000F07CFB40F20771392000F077FB40F2D6
:100C200002413C2000F072FB40F60F413D2000F0F5
:100C30006DFB0021502000F069FBEF21512000F0F6
:100C400065FB0021522000F061FB40F23F11532070
:100C500000F05CFB4FF41C51602000F057FB0121B9
:100C6000612000F053FB00216A2000F04FFB0021BF
:100C7000802000F04BFB0021812000F047FB002189
:100C8000822000F043FB0021832000F03FFB002185
:100C9000842000F03BFB0021852000F037FB102171
:100CA000902000F033FB4FF4C061922000F02EFB47
:100CB0002121072000F02AFB0520FFF7DFFC61213E
:100CC000072000F023FB0520FFF7D8FC40F233118A
:100CD000072000F01BFB0520FFF7D0FCE5E2FF48F2
:100CE0000088A0F5194119397ED10621282000F08D
:100CF0000DFB0121002000F009FB0021102000F075
:100D000005FB47F2EF21012000F000FB4FF4C0612A
:100D1000022000F0FBFA46F63821032000F0F6FA34
:100D200046F67401112000F0F1FA00210F2000F0C6
:100D3000EDFA45F208310B2000F0E8FA03210C200F
:100D400000F0E4FA0A210D2000F0E0FA4FF43851E7
:100D50000E2000F0DBFABE211E2000F0D7FA4FF47F
:100D60000041252000F0D2FA4FF4F041262000F097
:100D7000CDFA7821272000F0C9FA00214E2000F09A
:100D8000C5FA00214F2000F0C1FA40F6D901122027
:100D900000F0BCFA0021302000F0B8FA4FF4827164
:100DA000312000F0B3FA4FF48071322000F0AEFA37
:100DB00040F20531332000F0A9FA40F20551342009
:100DC00000F0A4FA40F20531352000F09FFA40F21D
:100DD0000771362000F09AFA4FF44071372000F086
:100DE00095FA4FF4905100E00CE03A2000F08EFAB2
:100DF0004FF400613B2000F089FA3321072000F016
:100E000085FA52E2B5480088A0F5A85105397ED18F
:100E1000072000F07BFA0520FFF730FC4FF48E71BD
:100E2000122000F073FA0121A42000F06FFA0F21C4
:100E3000082000F06BFA08210A2000F067FA082168
:100E40000D2000F063FA40F20771302000F05EFAE6
:100E50000721312000F05AFA40F20361322000F0FD
:100E600055FA4FF4E061332000F050FA40F20221CD
:100E7000342000F04BFA0221352000F047FA41F609
:100E80000F71362000F042FA40F20771372000F06F
:100E90003DFA0021382000F039FA0021392000F015
:100EA00035FA40F207713A2000F030FA00213B2079
:100EB00000F02CFA07213C2000F028FA00213D2008
:100EC00000F024FA0520FFF7D9FB0121072000F0EC
:100ED0001DFA0121172000F019FA0520FFF7CEFBBB
:100EE0004FF4BD51102000F011FA40F217211120EB
:100EF00000F00CFA4FF48F71122000F007FA4FF453
:100F00007061132000F002FA00212A2000E093E033
:100F100000F0FCF90A21292000F0F8F94FF49F7144
:100F2000122000F0F3F90021502000F0EFF9EF213A
:100F3000512000F0EBF90021522000F0E7F940F2D7
:100F40003F11532000F0E2F94FF41C51602000F0F3
:100F5000DDF90121612000F0D9F900216A2000F0BB
:100F6000D5F90021802000F0D1F90021812000F086
:100F7000CDF90021822000F0C9F90021832000F082
:100F8000C5F90021842000F0C1F90021852000F07E
:100F9000BDF91321902000F0B9F94FF4407192206F
:100FA00000F0B4F90521932000F0B0F9002195205C
:100FB00000F0ACF90021972000F0A8F9002198205A
:100FC00000F0A4F94FF48071012000F09FF94FF474
:100FD000E061022000F09AF941F23001032000F0B4
:100FE00095F90021042000F091F900210C2000F077
:100FF0008DF900210F2000F089F90021202000F058
:1010000085F90021212000F081F92121072000F03D
:101010007DF91420FFF732FB6121072000F076F9FB
:101020001420FFF72BFB40F27311072000F06EF93C
:101030001420FFF723FB38E128480088A0F5094178
:101040008939F8D10121002000F060F90520FFF76F
:1010500015FB4AF6A401032000F058F90520FFF71C
:101060000DFB00210C2000F051F90520FFF706FBD5
:1010700040F60C010D2000F049F90520FFF7FEFABB
:101080004FF42C510E2000F041F90520FFF7F6FA3D
:10109000B0211E2000F03AF90520FFF7EFFA42F6E2
:1010A0003F31012000F032F90520FFF7E7FA4FF455
:1010B000C061022000F02AF90520FFF7DFFA0021C5
:1010C000102000F023F90520FFF7D8FA46F270014E
:1010D000112000F01BF9052002E0000004000020B0
:1010E000FFF7CCFA0021052000F010F90520FFF7EA
:1010F000C5FA0021062000F009F90520FFF7BEFA25
:101100004EF61C71162000F001F90520FFF7B6FA23
:101110000321172000F0FAF80520FFF7AFFA40F29C
:101120003311072000F0F2F80520FFF7A7FA00219D
:101130000B2000F0EBF80520FFF7A0FA00210F20AC
:1011400000F0E4F80520FFF799FA0021412000F0B3
:10115000DDF80520FFF792FA0021422000F0D6F8D2
:101160000520FFF78BFA0021482000F0CFF805207A
:10117000FFF784FA40F23F11492000F0C7F805203C
:10118000FFF77CFA00214A2000F0C0F80520FFF7A5
:1011900075FA00214B2000F0B9F80520FFF76EFA30
:1011A0004FF46F41442000F0B1F80520FFF766FAD4
:1011B0000021452000F0AAF80520FFF75FFA40F271
:1011C0003F11462000F0A2F80520FFF757FA40F241
:1011D0000771302000F09AF80520FFF74FFA4FF41E
:1011E0000171312000F092F80520FFF747FA4FF423
:1011F0000171322000F08AF80520FFF73FFA40F233
:101200000251332000F082F80520FFF737FA40F250
:101210000751342000F07AF80520FFF72FFA4FF439
:101220000171352000F072F80520FFF727FA4FF41E
:101230000171362000F06AF80520FFF71FFA40F22E
:101240000251372000F062F80520FFF717FA40F24C
:1012500002313A2000F05AF80520FFF70FFA40F269
:1012600002313B2000F052F80520FFF707FA002179
:10127000232000F04BF80520FFF700FA002124207E
:1012800000F044F80520FFF7F9F94FF4004125205C
:1012900000F03CF80520FFF7F1F900214F2000F0A5
:1012A00035F800214E2000F031F80520FFF7E6F96F
:1012B00010BD000070B504460D4613480088A0F527
:1012C0000941893908D121464E2000F01FF82946EE
:1012D0004F2000F01BF816E00B480088A0F51941DC
:1012E000193908D121464E2000F010F829464F2028
:1012F00000F00CF807E02146202000F007F829460E
:10130000212000F003F870BD040000204FF0C0421F
:101310001080014A118070470000026000BFFEE7A4
:101320007047704731B1074A526942EA0002054BE3
:101330005A6105E0034A526922EA0002014B5A61F0
:10134000704700000010024031B1074AD26942EAFA
:101350000002054BDA6105E0034AD26922EA000285
:10136000014BDA61704700000010024031B1074ABA
:10137000926942EA0002054B9A6105E0034A9269CC
:1013800022EA0002014B9A617047000000100240FF
:1013900030B54FF0000529462A462C462B463B4DDA
:1013A0006D6805F00C05294621B1042905D00829EE
:1013B0002AD105E0364D056029E0354D056026E06F
:1013C000324D6D6805F470152A46304D6D6805F490
:1013D00080352C464FF0020505EB92452A4624B98C
:1013E0002C4D02FB05F505600DE0284D6D6815F4E8
:1013F000003F04D0274D02FB05F5056003E0244DB6
:1014000002FB05F5056002E0214D056000BF00BF4D
:101410001E4D6D6805F0F00529464FEA1115294665
:101420001D4D6D5C2B46056825FA03F54560174D8B
:101430006D6805F4E06529464FEA11252946164DE9
:101440006D5C2B46456825FA03F585600F4D6D6888
:1014500005F4605529464FEAD12529460E4D6D5CAD
:101460002B46456825FA03F5C560084D6D6805F4FF
:10147000404529464FEA91352946084D6D5C2B467B
:10148000C568B5FBF3F5056130BD000000100240F2
:1014900000127A0000093D000B0000201B00002014
:1014A000704710B500F002F810BD00004FF00002C8
:1014B00011461046324A126842F48032304B1A60AC
:1014C00000BF2F4A126802F40032104601F10102F7
:1014D000114610B9B1F5A06FF3D1294A126812F480
:1014E000003F03D04FF00102104602E04FF000022F
:1014F0001046012842D1234A126842F01002214BC3
:101500001A601A46126822F003021A601A4612681C
:1015100042F002021A601A4A5268194B5A601A467F
:1015200052685A601A46526842F480625A601A46FB
:10153000526822F47C125A601A46526842F4E81249
:101540005A601A46126842F080721A6000BF0C4A54
:10155000126812F0007FFAD0094A526822F00302A2
:10156000074B5A601A46526842F002025A6000BFA6
:10157000034A526802F00C02082AF9D170470000B1
:101580000010024000200240042808D14FF0E02162
:10159000096941F004014FF0E022116107E04FF0CA
:1015A000E021096921F004014FF0E0221161704748
:1015B000012808D14FF0E021096941F001014FF005
:1015C000E02211610FE0811C08D14FF0E021096990
:1015D00021F001014FF0E022116104E04FF0000121
:1015E0004FF0E0229161704710B501464FF00004C2
:1015F0002246234620464FEAE1042346022B04D12B
:101600004FF0E0242469224603E04FF0E024E4692F
:101610002246012404FA01F4144203D04FF00104DD
:10162000204602E04FF00004204610BD704740B154
:101630004FF0E021096941F002014FF0E022116111
:1016400007E04FF0E021096921F002014FF0E022AC
:10165000116170474FF0E0214861704710B51448A0
:10166000006840F0010012490860084640681149CE
:1016700000EA01000E494860084600680E4900EA89
:1016800001000B4908600846006820F480200860CB
:101690000846406820F4FE0048604FF41F00886050
:1016A000FFF7FFFE4FF000600449086010BD000026
:1016B000001002400000FFF8FFFFF6FE08ED00E01A
:1016C00021B1028842F08002028005E002884FF6D4
:1016D0007F7302EA03020280704721B1028842F060
:1016E0000102028005E002884FF6FE7302EA03025F
:1016F0000280704770B54FF000052C462A462B46F5
:10170000058C4FF6EF7605EA06050584058C2A461A
:1017100085882B46058B2C4648F6FF7504EA05059F
:101720002C464FF6FF4504EA05052C460D884FEA86
:10173000056544EA15452C464FF6DF7502EA0505B6
:101740002A460D894FEA055542EA15452A464D8835
:101750004FEA055542EA15452A461C4DA84202D0DB
:101760001B4DA8422BD14FF67F7502EA05052A468C
:101770004D894FEA055542EA15452A464FF6BF7591
:1017800002EA05052A468D884FEA055542EA1545C5
:101790002A464FF6FF3503EA05052B464FF2FF7543
:1017A00003EA05052B468D894FEA854543EA154531
:1017B0002B46CD894FEA854543EA15452B46838064
:1017C0000483CD880587028470BD0000002C014091
:1017D000003401400A464FF000031946038B1946B6
:1017E0004FF2FF7301EA030319464FEA026341EA2D
:1017F00013431946018370474FF000031A460388CC
:101800001A46224B98420ED0214B98420BD0B0F191
:10181000804F08D01F4B984205D01F4B984202D0F2
:101820001E4B984208D14FF68F7302EA03031A4603
:101830004B8843EA02031A46194B98420BD0194BC6
:10184000984208D04FF6FF4302EA03031A46CB88BA
:1018500043EA02031A4602808B8883850B8803853E
:101860000A4B98420BD00A4B984208D00E4B984234
:1018700005D00E4B984202D00D4B984201D10B7A05
:1018800003864FF00103838270470000002C014063
:10189000003401400004004000080040000C0040FB
:1018A000001000400014004000400140004401408E
:1018B0000048014000BFFEE702E008C8121F08C14F
:1018C000002AFAD170477047002001E001C1121FC1
:1018D000002AFBD17047000000B585B06846FFF7CD
:1018E00057FD6FF00400FFF74FFE0020FFF79FFE4B
:1018F00007490198B0FBF1F0064908704FF4FA511E
:101900000198B0FBF1F00449088005B000BD00006B
:1019100000127A00060000200800002070B504467E
:101920001148008800FB04F5B5F1807F02D36FF009
:101930007F4005462846FFF78DFE0020FFF738FE62
:101940000120FFF735FE00BF1020FFF74DFE0749CD
:101950000870084600780128F6D1C01EFFF728FE5F
:101960000020FFF725FE70BD080000200A000020BF
:10197000FFF774FEFFF7B0FFFEF7DAFEFEF7BEFDDD
:1019800019E04FF00A00044612E004EB8401490616
:10199000090E0846FEF7A0FD4FF4FA70FFF7BEFFF0
:1019A0004FF47840FEF716FEA4F10100C0B20446E1
:1019B000002CEADC00BFE4E7D81900080000002092
:1019C00034000000B81800080C1A00083400002089
:1019D00004040000C81800080000E803000000002C
:1019E00000000000000000010203040102030406DD
:1019F000070809020406080000A24A0400000000CB
:0C1A0000000000000102030406070809B2
:0400000508000131BD
:00000001FF
