:020000040800F2
:100000000004002045010008330300082B0300080A
:100010002F0300088D010008AD0400080000000057
:100020000000000000000000000000005D03000868
:100030009101000800000000350300084504000895
:100040005F0100085F0100085F0100085F01000810
:100050005F0100085F0100085F0100085F01000800
:100060005F0100085F0100085F0100085F010008F0
:100070005F0100085F0100085F0100085F010008E0
:100080005F0100085F0100085F0100085F010008D0
:100090005F0100085F0100085F0100085F010008C0
:1000A0005F0100085F0100085F0100085F010008B0
:1000B0005F0100085F0100085F0100085F010008A0
:1000C0005F0100085F0100085F0100085F01000890
:1000D0005F0100085F0100085F0100085F01000880
:1000E0005F0100085F0100085F0100085F01000870
:1000F0005F0100085F0100085F0100085F01000860
:100100005F0100085F0100085F0100085F0100084F
:100110005F0100085F0100085F0100085F0100083F
:100120005F0100085F0100085F0100085F0100082F
:10013000DFF80CD000F018F800480047D1040008A0
:10014000000400200648804706480047FEE7FEE717
:10015000FEE7FEE7FEE7FEE7FEE7FEE7FEE7FEE777
:100160004904000831010008064C074D06E0E0682C
:1001700040F0010394E8070098471034AC42F6D3EE
:10018000FFF7DAFF280500083805000800BFFEE782
:10019000704702E0A0F1010108460028FAD170473B
:1001A00008B50121082000F0C7F84FF00300ADF8B2
:1001B00000008DF802004FF010008DF80300694632
:1001C000014800F003F808BD000C01402DE9F041A2
:1001D00002464FF0000C654666466046634664463C
:1001E000674691F803C00CF00F0C654691F803C008
:1001F0001CF0100F04D091F802C04CEA050C6546C3
:10020000B1F800C01CF0FF0F3FD0D2F800C0644628
:100210004FF0000C604635E04FF0010C0CFA00FC8A
:100220006346B1F800C00CEA030C66469E4226D134
:100230004FEA800C63464FF00F0C0CFA03FC674644
:1002400024EA070C644605FA03FC4CEA040C6446F5
:1002500091F803C0BCF1280F06D14FF0010C0CFA45
:1002600000FCC2F814C00AE091F803C0BCF1480FCA
:1002700005D14FF0010C0CFA00FCC2F810C000F1DF
:10028000010C60460828C7D31460B1F800C0BCF167
:10029000FF0F44DDD2F804C064464FF0000C604606
:1002A0003AE000F1080C4FF0010808FA0CF8434658
:1002B000B1F800C00CEA030C66469E4229D14FEA11
:1002C000800C63464FF00F0C0CFA03FC674624EADF
:1002D000070C644605FA03FC4CEA040C644691F8EA
:1002E00003C0BCF1280F07D100F1080C4FF0010842
:1002F00008FA0CF8C2F8148091F803C0BCF1480F5A
:1003000007D100F1080C4FF0010808FA0CF8C2F808
:10031000108000F1010C60460828C2D35460BDE88B
:10032000F081416170470161704700BFFEE700BF87
:10033000FEE770477047000031B1074A926942EA10
:100340000002054B9A6105E0034A926922EA000225
:10035000014B9A617047000000100240704710B5D1
:1003600000F002F810BD00004FF0000211461046E8
:10037000324A126842F48032304B1A6000BF2F4A72
:10038000126802F40032104601F10102114610B960
:10039000B1F5A06FF3D1294A126812F4003F03D0DF
:1003A0004FF00102104602E04FF000021046012813
:1003B00042D1234A126842F01002214B1A601A46B9
:1003C000126822F003021A601A46126842F0020212
:1003D0001A601A4A5268194B5A601A4652685A6093
:1003E0001A46526842F480625A601A46526822F4F1
:1003F0007C125A601A46526842F4E8125A601A4651
:10040000126842F080721A6000BF0C4A126812F043
:10041000007FFAD0094A526822F00302074B5A6063
:100420001A46526842F002025A6000BF034A5268FC
:1004300002F00C02082AF9D17047000000100240B7
:10044000002002407047000010B51448006840F0DA
:1004500001001249086008464068114900EA01009D
:100460000E494860084600680E4900EA01000B4941
:1004700008600846006820F480200860084640684C
:1004800020F4FE0048604FF41F008860FFF767FF0C
:100490004FF000600449086010BD000000100240E9
:1004A0000000FFF8FFFFF6FE08ED00E000BFFEE7EA
:1004B00002E008C8121F08C1002AFAD1704770472D
:1004C000002001E001C1121F002AFBD1704700008B
:1004D000FFF766FE21E001211048FFF724FF02210B
:1004E0000E48FFF71EFF0E48FFF753FE0C48FFF7BC
:1004F00050FE0C48FFF74DFE01210848FFF711FFA1
:1005000002210648FFF70FFF0548FFF742FE0448A7
:10051000FFF73FFE0348FFF73CFEDCE7000C01401D
:10052000FFFF0F00FFFF0500380500080000002056
:0805300000040000C0040008F3
:0400000508000131BD
:00000001FF
